:020000040800F2
:1000000018130020D1010008451C0008471C0008F7
:100010004B1C00084F1C0008531C00080000000087
:10002000000000000000000000000000591C000853
:10003000571C0008000000005B1C00085D1C000845
:10004000EB010008EB010008EB010008EB010008E0
:10005000EB010008EB010008EB010008EB010008D0
:10006000EB010008EB010008EB010008EB010008C0
:10007000EB010008EB010008EB010008EB010008B0
:10008000EB010008EB010008EB010008EB010008A0
:10009000EB010008EB010008EB010008EB01000890
:1000A000EB010008EB010008EB010008EB01000880
:1000B000EB010008C71D0008EB010008EB01000878
:1000C000EB010008EB010008EB010008EB01000860
:1000D000EB010008EB010008EB010008EB01000850
:1000E000EB010008EB010008EB01000800F002F84A
:1000F00000F05EF80AA090E8000C82448344AAF164
:100100000107DA4501D100F053F8AFF2090EBAE861
:100110000F0013F0010F18BFFB1A43F0010318473B
:10012000B8590000D859000010F8013B0A4413F0F8
:10013000030408BF10F8014B1D1108BF10F8015B44
:10014000641E05D010F8016B641E01F8016BF9D133
:10015000002D15D010F8014B03F00C030C2BA1EB74
:1001600004040ABF10F8013BA4EB8314A4EB03249E
:1001700005F1010314F8016B5B1E01F8016BF9D561
:10018000914238BF10F8013BD1D3704700230024BF
:1001900000250026103A28BF78C1FBD8520728BF97
:1001A00030C148BF0B6070471FB51FBD10B510BDF3
:1001B00002F0E9FC1146FFF7F7FF01F015FC02F031
:1001C00007FD03B4FFF7F2FF03BC02F00FFD0000D0
:1001D0000948804709480047FEE7FEE7FEE7FEE7DB
:1001E000FEE7FEE7FEE7FEE7FEE7FEE70448054917
:1001F000054A064B70470000EF020008ED000008BA
:10020000180D002018130020180F0020180F0020D0
:100210000CB50020019000906C48006840F48030DC
:100220006A49086000BF6948006800F40030009027
:100230000198401C0190009818B90198B0F5A06F82
:10024000F1D16248006800F4003010B10120009044
:1002500001E0002000900098012843D15C4800682C
:1002600040F010005A4908600846006820F003007A
:1002700008600846006840F0020008605348406883
:10028000524948600846406848600846406840F463
:10029000806048600846406820F47C10486008464A
:1002A000406840F4E81048600846006840F08070FC
:1002B000086000BF4548006800F000700028F9D0D1
:1002C0004248406820F003004049486008464068C2
:1002D00040F00200486000BF3C48406800F00C005D
:1002E0000828F9D10CBD10B5FFF792FF10BD10B56D
:1002F0003648006840F0010034490860084640680C
:10030000344908403149486008460068324908408D
:100310002E4908600846006820F4802008600846DE
:10032000406820F4FE0048604FF41F008860FFF72B
:10033000DAFF4FF000602949086010BD10B50021B8
:1003400000200022214B5B6803F00C0121B104293D
:1003500006D0082928D107E0214B224C236027E052
:100360001F4B204C236023E0184B5B6803F4701094
:10037000164B5B6803F48032022303EB904022B9F2
:10038000194B4343174C23600DE0104B5B6803F49B
:10039000003323B1144B4343124C236003E0104B52
:1003A0004343104C236003E00D4B0E4C236000BF11
:1003B00000BF064B5B68C3F303130C4CE15C094BB5
:1003C0001B68CB40074C236010BD000000100240AA
:1003D000002002400000FFF8FFFFF6FE08ED00E0FD
:1003E00000127A000000002000093D0004000020F7
:1003F00031490143314A1160704770B50021002333
:100400000F22C47804B32D4C246804F4E064C4F5CE
:10041000E064210AC1F10403CA40447804FA03F1FC
:100420008478144021430901254C0678A1550478AD
:1004300004F01F050124AC4005786D11AD0005F1F5
:10044000E025C5F8004109E0047804F01F05012407
:10045000AC401C4D0678761145F8264070BD1A4A0E
:100460000A400243154B1B1F1A60704739B1134AEB
:10047000121D12680243114B1B1D1A6006E00F4A41
:10048000121D126882430D4B1B1D1A607047042811
:1004900008D14FF0E021096941F004014FF0E0225A
:1004A000116107E04FF0E021096921F004014FF0EC
:1004B000E0221161704700000000FA050CED00E039
:1004C00000E400E080E100E080FFFF1F10B504467B
:1004D000CC48844208D10121042000F02DFB0021EA
:1004E000042000F029FB46E0C748844208D10121DE
:1004F000082000F021FB0021082000F01DFB3AE05D
:10050000C248844208D10121102000F015FB0021CF
:10051000102000F011FB2EE0BD48844208D10121DB
:10052000202000F009FB0021202000F005FB22E044
:10053000B848844208D10121402000F0FDFA002192
:10054000402000F0F9FA16E0B348844208D10121B6
:10055000802000F0F1FA0021802000F0EDFA0AE09E
:10056000AE48844207D10121801500F0E5FA002150
:10057000A01500F0E1FA10BD10B50121084600F009
:10058000DBFA0021012000F0D7FA10BD2DE9F0417F
:10059000024600250026002000230024002791F8B1
:1005A00003C00CF00F0591F803C00CF0100CBCF167
:1005B000000F03D091F802C04CEA050591F800C085
:1005C000BCF1000F31D0146800202BE04FF0010C7B
:1005D0000CFA00F3B1F800C00CEA03069E4220D1E9
:1005E00083004FF00F0C0CFA03F7BC4305FA03FC31
:1005F0004CEA040491F803C0BCF1280F06D14FF077
:10060000010C0CFA00FCC2F814C00AE091F803C017
:10061000BCF1480F05D14FF0010C0CFA00FCC2F8F8
:1006200010C0401C0828D1D31460B1F800C0BCF140
:10063000FF0F34DD546800202EE000F1080C4FF06D
:10064000010808FA0CF3B1F800C00CEA03069E4258
:1006500021D183004FF00F0C0CFA03F7BC4305FACD
:1006600003FC4CEA040491F803C0BCF1280F05D147
:1006700000F1080C08FA0CF8C2F8148091F803C0D5
:10068000BCF1480F07D100F1080C4FF0010808FA3F
:100690000CF8C2F81080401C0828CED35460BDE886
:1006A000F0814FF6FF710180022181700421C17039
:1006B00070470246002093680B400BB1012000E018
:1006C000002070470146886880B2704702460020CB
:1006D000D3680B400BB1012000E0002070470146B9
:1006E000C86880B2704701617047416170470AB1C4
:1006F000016100E041617047C16070474FF4803292
:100700000A4382618161826182698269704702461F
:100710000020434B18684FF68073184040EA0210DF
:1007200008433F4B186070473E49C8617047F0B5B9
:100730000A46002300240021002500F00046B6F1FF
:10074000004F02D1364EF16901E0354E7168C0F3B9
:10075000034583B200F44016B6F5401F08D121F0DE
:1007600070612F4E766826F070662D4F7E6012E025
:1007700000F48016B6F5801F06D1032606FA05F4AC
:10078000A14341F0706106E0460D360103FA06F61A
:10079000B14341F0706122B1460D360103FA06F60D
:1007A000314300F00046B6F1004F02D11C4EF1611A
:1007B00001E01B4E7160F0BD30B500228B071C0FAD
:1007C0000F2303FA04F2164B08338C1053F824302D
:1007D0009343134C08348D1044F8253023468C1075
:1007E00053F824308C07240F00FA04F423430C4CF4
:1007F00008348D1044F8253030BD0A49DC310860DA
:100800007047000000080140000C0140001001404A
:100810000014014000180140001C0140002001406C
:100820000000014000002042DF48006840F0010065
:10083000DD49086008464068DC490840DA494860FC
:1008400008460068DA490840D74908600846006849
:1008500020F4802008600846406820F4FE004860CC
:100860004FF41F0088607047CF49096821F4803138
:10087000CD4A11601146096821F480211160B0F55C
:10088000803F03D0B0F5802F0ED106E0C64909683D
:1008900041F48031C44A116007E0C349096841F45A
:1008A000A021C14A116000E000BF00BF704710B531
:1008B00001460022002300204A11012A02D1BA4C2D
:1008C000236806E0022A02D1B74C236A01E0B64C45
:1008D000636A01F01F02012494401C400CB1012006
:1008E00000E0002010BD38B5002000900024002555
:1008F00000BF3120FFF7DBFF05460098401C009049
:100900000098B0F5A06F01D0002DF2D03120FFF794
:10091000CEFF08B1012400E00024204638BD014686
:100920000020A14A106820F0F80040EAC1001060E1
:100930007047A04908607047024600209A4B5868EB
:1009400020F47C1042EA01031843974B586070472B
:1009500098490866704701460020934A506820F085
:1009600003000843506070478F48406800F00C0057
:100970007047014600208C4A506820F0F000084380
:100980005060704701460020874A506820F4E060BC
:1009900008435060704701460020834A506820F4A5
:1009A000605040EAC1005060704729B17E4A527AD7
:1009B00002437D4B5A7204E07B4A527A82437A4B5F
:1009C0005A7270477B49D831086070470146002051
:1009D000754A506820F44040084350607047002139
:1009E000714A20321170704A82F82010012802D01A
:1009F00004280AD104E001216B4A2032117005E07D
:100A00000521694A2032117000E000BF00BF704725
:100A10006949086070476449096A0143624A116282
:100A20007047654944390860704730B5002100229D
:100A3000002400235C4D6D6805F00C0121B10429F0
:100A400005D0082923D105E05C4D056022E05B4D0F
:100A500005601FE0544D6D6805F47012524D6D68CD
:100A600005F48034022505EB92421CB9544D5543E0
:100A700005600BE04C4D6D6805F400351DB1504D1F
:100A80005543056002E04D4D5543056002E04B4D76
:100A9000056000BF00BF444D6D6805F0F001090915
:100AA000484D6B5C0568DD4045603F4D6D6805F461
:100AB000E061090A434D6B5C4568DD4085603A4D55
:100AC0006D6805F46051C90A3E4D6B5C4568DD40B8
:100AD000C560354D6D6805F44041890B3A4D6B5C3E
:100AE000C568B5FBF3F5056130BD29B12E4A5269E1
:100AF00002432D4B5A6104E02B4A526982432A4B30
:100B00005A61704729B1284A92690243264B9A617B
:100B100004E0254A92698243234B9A61704729B1C8
:100B2000214AD2690243204BDA6104E01E4AD269AD
:100B300082431D4BDA61704729B11B4AD2680243D8
:100B4000194BDA6004E0184AD2688243164BDA6027
:100B5000704729B1144A12690243134B1A6104E029
:100B6000114A12698243104B1A6170471249403989
:100B7000086070470F49C86470470B49C8717047D7
:100B80000948406A40F08070074948627047014652
:100B90000020054A92680A400AB1012000E00020C6
:100BA0007047014988727047001002400000FFF84A
:100BB000FFFFF6FE000042428004424200127A002B
:100BC00000093D00140000202400002010B5044658
:100BD000FE48844208D10121C014FFF7ADFF002177
:100BE000E014FFF7A9FFC4E0B4F1804F08D1012160
:100BF0000846FFF7AEFF00210120FFF7AAFFB8E08B
:100C0000F348844208D101210220FFF7A2FF00210E
:100C10000220FFF79EFFACE0EE48844208D101219C
:100C20000420FFF796FF00210420FFF792FFA0E0C9
:100C3000E948844208D101210820FFF78AFF0021FA
:100C40000820FFF786FF94E0E448844208D10121A0
:100C50001020FFF77EFF00211020FFF77AFF88E0C9
:100C6000DF48844208D101212020FFF772FF0021D4
:100C70002020FFF76EFF7CE0DA48844208D1012192
:100C80004014FFF759FF00216014FFF755FF70E093
:100C9000D548844209D10121C804FFF74DFF002146
:100CA0004FF40020FFF748FF63E0D048844209D1A9
:100CB00001210805FFF740FF00214FF48010FFF7E6
:100CC0003BFF56E0CA48844209D101214805FFF79D
:100CD00033FF00214FF40010FFF72EFF49E0C54815
:100CE000844208D101214020FFF733FF002140203A
:100CF000FFF72FFF3DE0C048844208D1012180204A
:100D0000FFF727FF00218020FFF723FF31E0BB48DA
:100D1000844208D101218015FFF71BFF0021A01597
:100D2000FFF717FF25E0B648844209D101210804E6
:100D3000FFF702FF00214FF48030FFF7FDFE18E0BF
:100D4000B048844209D101214804FFF7F5FE002193
:100D50004FF40030FFF7F0FE0BE0AB48844208D1BF
:100D600001218804FFF7E8FE00214FF48020FFF7FF
:100D7000E3FE10BD00220288944B98420ED0994B9E
:100D800098420BD0B0F1804F08D0914B984205D0DB
:100D9000904B984202D0904B984204D14FF68F73FB
:100DA0001A404B881A438D4B984207D08C4B98427F
:100DB00004D04FF6FF431A40CB881A4302808B8839
:100DC00083850B880385814B98420BD0854B9842D5
:100DD00008D08B4B984205D08A4B984202D08A4B60
:100DE000984201D10B7A038601238382704770B544
:100DF000002400220023058C4FF6FE763540058442
:100E0000028C8388048B4FF68F752C40B51E2C40C6
:100E10000D882C43751E2A400D892A434D882A438C
:100E20006A4DA8420BD06F4DA84208D0744DA8421D
:100E300005D0744DA84202D0734DA84213D14FF68D
:100E4000F7752A404D892A434FF6FB752A408D8855
:100E50002A434FF6FF652B404FF6FF552B408D89F7
:100E60002B43CD892B4383800483CD8885860284E0
:100E700070BD70B5002400220023058C4FF6EF767C
:100E800035400584028C8388048B48F6FF752C401E
:100E90004FF6FF452C400D884FF6FF7606EA0525F4
:100EA0002C434FF6DF752A400D8906EA05152A43C3
:100EB0004D8806EA05152A43444DA84202D0494D03
:100EC000A8421DD14FF67F752A404D894FF6FF7617
:100ED00006EA05152A434FF6BF752A408D8806EAB3
:100EE00005152A434FF6FF352B404FF2FF752B4077
:100EF0008D8906EA85052B43CD8906EA85052B43B6
:100F000083800483CD880587028470BD70B500247A
:100F100000220023058C4FF6FF6635400584028CC5
:100F20008388848B4FF68F752C404FF6FC752C40D0
:100F30000D882C434FF6FF552A400D894FF6FF765A
:100F400006EA05252A434D8806EA05252A431F4D52
:100F5000A84202D0234DA8421DD14FF2FF752A406E
:100F60004D894FF6FF7606EA05252A434FF6FF35F1
:100F70002A408D8806EA05252A434EF6FF752B4048
:100F80004DF6FF752B408D8906EA05152B43CD895B
:100F900006EA05152B4383808483CD8885870284E8
:100FA00070BD70B5002200230024058C4EF6FF763C
:100FB00035400584038C8488828B48F6FF752A406F
:100FC0004FF6FF452A400D8820E00000002C01402C
:100FD0000004004000080040000C004000100040E9
:100FE0000014004000340140004C0140005001401A
:100FF0000054014000180040001C00400020004048
:101000000040014000440140004801404FF6FF7697
:1010100006EA05252A434DF6FF752B400D8906EAA1
:1010200005352B434D8806EA05352B43FA4DA8427A
:1010300002D0FA4DA84208D14BF6FF752C408D899D
:101040004FF6FF7606EA85152C4384808283CD888F
:10105000A0F84050038470BD828B4FF2FF331A40DA
:101060008283828B4FF6FF7303EA01231A43828344
:101070007047F0B50C461546002200210026078C6B
:101080004EF6FF7C07EA0C070784828B018C4FF633
:10109000FF7707EA043640F6FF473A404FF6FF77FE
:1010A00007EA05273A434FF6FF7707EA03373A4343
:1010B000D94FB8420ED0D94FB8420BD0B0F1804FC3
:1010C00008D0D74FB84205D0D64FB84202D0D64F3D
:1010D000B84206D14DF6FF77394046F48057394380
:1010E00005E047F6FF57394044F48057394382837F
:1010F0000184F0BD828B4FF6F3731A408283828B9A
:101100000A4382837047F0B50C4615460022002141
:101110000026078C4FF6FF6C07EA0C070784828BCA
:10112000018C4FF6FF7707EA04264FF60C773A401A
:101130004FF6FF7707EA03172F433A43B64FB842FB
:101140000ED0B64FB8420BD0B0F1804F08D0B44F9C
:10115000B84205D0B34FB84202D0B34FB84206D11F
:101160004FF6FF57394046F48077394305E04FF298
:10117000FF57394044F48077394382830184F0BDBE
:10118000028B4FF2FF331A400283028B4FF6FF733C
:1011900003EA01231A4302837047F0B50C46154653
:1011A000002200210026078C4FF6EF7C07EA0C078F
:1011B0000784028B018C4FF6FF7707EA041640F68E
:1011C000FF473A404FF6FF7707EA03373A434FF6B7
:1011D000FF7707EA05273A438F4FB8420ED08F4F6B
:1011E000B8420BD0B0F1804F08D08D4FB84205D037
:1011F0008C4FB84202D08C4FB84206D14FF6DF7701
:10120000394046F01007394305E04FF65F77394023
:1012100044F01007394302830184F0BD028B4FF67E
:10122000F3731A400283028B0A4302837047F0B5BE
:101230000C46154600220021068C4FF6FE773E40F4
:101240000684028B018C4FF60C7632407E1C06EA37
:1012500003162E433243704EB0420ED06F4EB04252
:101260000BD0B0F1804F08D06D4EB04205D06D4E1E
:10127000B04202D06C4EB04206D14FF6FD763140FE
:1012800044F00106314305E04FF6F576314044F075
:101290000106314302830184F0BD70B505460C465A
:1012A0005D4885420ED05D4885420BD0B5F1804F38
:1012B00008D05B48854205D05A48854202D05A483A
:1012C000854200D100E000BF208850B92389A28860
:1012D00061882846FFF7ABFFE1882846FFF79EFFAD
:1012E00025E0208804280AD12389A288618828461D
:1012F000FFF753FFE1882846FFF742FF17E02088F9
:1013000008280AD12389A28861882846FFF7FBFEB6
:10131000E1882846FFF7EEFE09E02389A28861886C
:101320002846FFF7A6FEE1882846FFF795FE70BD28
:101330002DE9F04105460C4600260127608808B9D2
:10134000022600E00026A088012801D1022700E043
:1013500001272088A0B92389A28861882846FFF741
:1013600066FFE1882846FFF759FF23893A46314650
:101370002846FFF712FFE1882846FFF701FF13E038
:101380002389A28861882846FFF707FFE18828465D
:10139000FFF7F6FE23893A4631462846FFF747FF16
:1013A000E1882846FFF73AFFBDE8F0810A884B88BC
:1013B0001A438B881A43CB881A430B891A434B89EB
:1013C0001A438B891A43A0F8442070474FF6FF71E7
:1013D000818000210180C18041800172704700211D
:1013E000018041808180C180018141818181C181F1
:1013F0007047002101804180012181800021C1804E
:10140000018170470021018041808180C18001817C
:101410004181818170470000002C0140003401406F
:101420000004004000080040000C004021B1028888
:1014300042F00102028004E002884FF6FE731A4077
:101440000280704731B1B0F8442042F40042A0F865
:10145000442005E0B0F84420C2F30E02A0F8442076
:1014600070471AB183890B43838102E083898B43E0
:10147000838170478182704741EA0203A0F84830B7
:1014800070471AB183890B43838102E083898B43C0
:101490008381704701894FF6F872114001817047CE
:1014A0000A46002101894FF68F73194011430181CB
:1014B000704730B504460D4629462046FFF7F0FF39
:1014C000208940F00700208130BD2DE9F04104461D
:1014D0000D4616461F46602D06D13B460122314679
:1014E0002046FFF75AFE05E03B46012231462046E2
:1014F000FFF79DFE29462046FFF7D2FF208940F0E6
:1015000007002081BDE8F08130B50C46002101893B
:10151000C9B24FF6FF7505EA032515432543294354
:10152000018130BD2DE9F04105460E46174698462B
:10153000002443463A4631462846FFF7E5FF2C890A
:101540004FF6F870044044F007044FF68F700440E3
:1015500044F070042C81BDE8F081F0B504460D46DE
:1015600016461F463B46324629462046FFF7CCFF2B
:10157000208940F480402081F0BD0185828270473F
:101580000A46002101884FF68F73194011430180EC
:101590007047F0B50C4615461E4600210022002378
:1015A0000189028B038C4FF6F877394021434FF6BF
:1015B000FC473A4040F201173A434FF6DD773B4093
:1015C0004FF6FF7707EA06172F433B43018102835B
:1015D0000384F0BD0A460021018B4FF68F7319403A
:1015E0001143018370470A460021018B48F6FF73BF
:1015F00019404FF6FF7303EA022319430183704732
:101600000A460021818B4FF68F7319401143818365
:1016100070470A460021818B48F6FF7319404FF648
:10162000FF7303EA022319438183704721B10288C3
:1016300042F08002028004E002884FF67F731A4075
:101640000280704721B1828842F00402828004E067
:1016500082884FF6FB731A408280704721B18288DE
:1016600042F00802828004E082884FF6F7731A4045
:101670008280704721B1828842F00102828004E0BA
:1016800082884FF6FE731A40828070470A46002116
:10169000018B4FF6F77319401143018370470A46D7
:1016A0000021018B4FF2FF7319404FF6FF7303EADD
:1016B00002231943018370470A460021818B4FF6AC
:1016C000F77319401143818370470A460021818BCB
:1016D0004FF2FF7319404FF6FF7303EA02231943D9
:1016E000818370470A460021018B4FF6FB73194036
:1016F0001143018370470A460021018B4FF6FF33E7
:1017000019404FF6FF7303EA022319430183704720
:101710000A460021818B4FF6FB73194011438183E8
:1017200070470A460021818B4FF6FF3319404FF670
:10173000FF7303EA02231943818370470A4600219D
:10174000018B4FF67F7319401143018370470A469E
:101750000021018BC1F30E014FF6FF7303EA022350
:101760001943018370470A460021818B4FF67F732E
:1017700019401143818370470A460021818BC1F3D0
:101780000E014FF6FF7303EA02231943818370476A
:101790000A460021018C4FF6FD7319401143018464
:1017A00070470A460021018C4FF6F7731940114328
:1017B000018470470A460021018C4FF6DF731940FF
:1017C0004FF6FF7303EA02131943018470470A4678
:1017D0000021018C4FF67F7319404FF6FF7303EA27
:1017E00002131943018470470A460021018C4FF609
:1017F000FF5319404FF6FF7303EA02231943018494
:1018000070470A460021018C4FF2FF7319404FF6D2
:10181000FF7303EA02231943018470470A4600213B
:10182000018C4DF6FF7319404FF6FF7303EA023344
:1018300019430184704730B5002301248C40A3B2C2
:10184000048C9C430484048C02FA01F5ADB22C4351
:10185000048430BD30B5002304248C40A3B2048C32
:101860009C430484048C02FA01F5ADB22C43048439
:1018700030BD70B5034600200024184618300125FD
:101880008D40ACB21D8CA5431D8409B1082909D136
:1018900000EB6100056825F07005056005681543DB
:1018A00005600EE00D1FC5F34E052844056825F4BC
:1018B000E045056005684FF6FF7606EA02263543E7
:1018C000056070BD21B1028842F00202028004E08E
:1018D00002884FF6FD731A400280704721B10288DA
:1018E00042F00402028004E002884FF6FB731A40C3
:1018F0000280704721B1828842F08002828004E039
:1019000082884FF67F731A408280704702884FF6B4
:10191000F7731A40028002880A4302807047828867
:101920004FF68F731A40828082880A438280704704
:1019300002894FF6F8731A40028102890A43028134
:10194000704702894FF67F731A40028102890A4369
:101950000281704781847047818570478186704716
:101960000187704781877047A0F840107047028850
:101970004FF6FF431A40028002880A4302807047F4
:101980000146888E70470146088F70470146888F50
:1019900070470146B1F8400070470146888C704797
:1019A0000146088D704702460020138A0B400BB198
:1019B000012000E000207047CA430282704730B522
:1019C0000246002000230024158A05EA01039589B8
:1019D00005EA010413B10CB1012000E0002030BD84
:1019E000CA430282704700008B4800684FF47A7146
:1019F000B0FBF1F4204600F085F901F017F800F093
:101A000035F900F0B3F906E184480078012807D1E0
:101A100083480078401C8249087000207F49087084
:101A20007F48007840B900207E49086001207E4947
:101A3000C1F8B4017D49087079480078142809D1AB
:101A400000207B49086001207A49C1F8BC010220CE
:101A5000764908707248007828280AD10020744915
:101A6000091D086001207449C1F88C0103206F49E9
:101A700008706B4800783C280AD100206C49083176
:101A8000086001206C49C1F8900104206749087082
:101A900063480078502809D1002068490860012077
:101AA0006549C1F894010520604908705C480078D8
:101AB00064280AD100206149091D086001205A49A3
:101AC000C1F8B001062059490870554800787828B7
:101AD00005D1002052490870012054490870242281
:101AE0000021202000F082FA19220021282000F095
:101AF0007DFA1D220021302000F078FA1522002105
:101B0000382000F073FA22220021402000F06EFA03
:101B10004BA20021502000F01DFB14220021582070
:101B200000F064FA15220021602000F05FFA1D2207
:101B30000021682000F05AFA1F220021702000F0D6
:101B400055FA23220221082000F050FA3522022102
:101B5000102000F04BFA35220221182000F046FA3E
:101B600024220221302000F041FA382202211046BE
:101B700000F03CFA35220221402000F037FA1C2206
:101B80000221502000F032FA15220221582000F0E4
:101B90002DFA14220221602000F028FA43220221AB
:101BA000682000F023FA5C220421002000F01EFAD5
:101BB0005C220421082000F019FA1C2204211020C4
:101BC00000F014FA15220421182000F00FFA142254
:101BD0000421202000F00AFA1F220421302000F006
:101BE00005FA1E220421382000F000FA0A220421FE
:101BF000402000F0FBF91C220421482000F0F6F9F7
:101C000014220421502000F0F1F908480278042140
:101C1000582000F0EBF9F7E6000000203208002021
:101C200029080020BC01224200802142280800200F
:101C30008C0121420000224200002142B081214259
:101C400020000000704700BFFEE700BFFEE700BFB6
:101C5000FEE700BFFEE77047704770470248006824
:101C6000401E0149086070472C08002008B501217A
:101C70000820FEF747FF01210420FEF743FF012162
:101C80001020FEF73FFF4FF44050ADF80000032056
:101C90008DF8020010208DF8030069461648FEF703
:101CA00075FC4FF40040ADF8000003208DF80200F1
:101CB00010208DF8030069461048FEF767FC3C20B1
:101CC000ADF8000003208DF8020010208DF803000D
:101CD00069460B48FEF75AFC4FF440510648FEF7A0
:101CE00002FD38210648FEF7FEFC4FF40041034890
:101CF000FEF7F9FC08BD0000000C01400010014097
:101D00000008014030B50146481EB0F1807F01D384
:101D1000012030BD481E4FF0E022506150170F22C5
:101D2000002804DB13071C0E0D4B1C5406E01307A0
:101D30001D0E0C4B00F00F04241F1D5500BF00208A
:101D40004FF0E0229061072010610020E1E7064992
:101D5000086000BF044909680029FBD170470000F2
:101D600000E400E018ED00E02C0800201FB5012180
:101D70000220FEF7D4FE1D208DF8000000208DF813
:101D8000010001208DF802008DF803006846FEF77F
:101D900034FB40F2E730ADF808004720ADF804000E
:101DA0000020ADF80A00ADF8060001A91248FEF7C0
:101DB000E1FF012211461048FFF753FB01210E48B5
:101DC000FFF734FB1FBD10B501210B48FFF7F7FDEE
:101DD00068B10A480088401C80B20849088032284F
:101DE00005D101200649087000200449088001211E
:101DF0000148FFF7F5FD10BD000400403008002049
:101E00003208002070B5044608252902FA48FEF77A
:101E10006CFC0121F848FEF768FC15E004F0800036
:101E200020B10221F448FEF75EFC03E00221F248F3
:101E3000FEF75BFC0121F048FEF755FC0121EE485E
:101E4000FEF753FC6006040E281EA5F10101CDB279
:101E5000E4D170BD70B5044608252902E648FEF7B6
:101E600042FC0121E448FEF740FC15E004F080004C
:101E700020B10221E048FEF736FC03E00221DE48F3
:101E8000FEF733FC0121DC48FEF72DFC0121DA4886
:101E9000FEF72BFC6006040E281EA5F10101CDB251
:101EA000E4D170BD30B50246062000240C540EE08B
:101EB000441EE0B20A2492FBF4F504FB1524E3B2BD
:101EC0000A2492FBF4F4A2B203F130040C5400286B
:101ED000EED130BD70B50646002415E004F1B00126
:101EE000C8B2FFF78FFF0120FFF78CFF1020FFF72C
:101EF00089FF002504E03046FFF7ACFF681CC5B23F
:101F0000802DF8DB601CC4B2082CE7DB70BD70B517
:101F100004460D4605F1B001C8B2FFF773FF10216A
:101F200041EA1410FFF76EFF04F00F0141F00100C9
:101F3000FFF768FF70BD2DE9F04706460F46904653
:101F400000250024A14631E018F809002038C5B268
:101F5000782E02DD0026781CC7B239463046FFF7DE
:101F6000D6FF002407E004EB0511A44A505CFFF7FC
:101F700071FF601CC4B2082CF5DB781CC1B230467E
:101F8000FFF7C5FF002408E004EB051108319B4A68
:101F9000505CFFF75FFF601CC4B2082CF4DB06F155
:101FA0000800C6B209F1010000F0FF0918F80900A5
:101FB0000028C9D1BDE8F0872DE9FC4105460F4650
:101FC000164669463046FFF76DFF0DF1010408E043
:101FD000224639462846FFF7AEFF05F10800C5B294
:101FE000641C20780028F3D1BDE8FC812DE9F04184
:101FF00006460D46174607F1300000F0FF087A2E1E
:1020000002DD0026681C85B2E9B23046FFF77FFF8B
:10201000002407E07A4901EB0811085DFFF71AFF79
:10202000601CC4B2082CF5DB681CC1B23046FFF757
:102030006EFF082407E0724901EB0811085DFFF705
:1020400009FF601CC4B2102CF5DBBDE8F0812DE95E
:10205000F05F05468B461646002E02DA704284B2C7
:1020600000E0B4B242F2107094FBF0F100FB1140BA
:102070004FF47A7190FBF1F000F0FF08084694FBF2
:10208000F0F100FB1140642190FBF1F0C7B2642035
:1020900094FBF0F100FB11400A2190FBF1F000F0FD
:1020A000FF0A0A2094FBF0F100FB114000F0FF0949
:1020B000B8F1000F0CDD424659462846FFF796FF5F
:1020C00005F10801C8B23A465946FFF78FFF08E00C
:1020D000002F06DD05F10801C8B23A465946FFF760
:1020E00085FF05F11001C8B252465946FFF77EFF41
:1020F00005F11801C8B24A465946FFF777FFBDE817
:10210000F09F2DE9F047064689461446002C02DA76
:102110006042C5B200E0E5B2642095FBF0F100FB3F
:1021200011500A2190FBF1F000F0FF080A2095FB06
:10213000F0F100FB1150C7B2424649463046FFF766
:1021400055FF06F10801C8B23A464946FFF74EFF6F
:10215000BDE8F0872DE9F04781460F469046002400
:102160000025012675E00024012611E02548005DC8
:1021700018F80510884209D12249601C095C681CC6
:1021800018F80000814201D1260105E0A01CC4B26C
:102190001C48005D7F28E9DC00BFB9F1760F03DD44
:1021A0004FF00009781CC7B239464846FFF7AFFE2A
:1021B000012E2BD039464846FFF7A9FE002407E040
:1021C0001149885DFFF746FE701C86B2601CC4B2E0
:1021D000102CF5DB781CC1B24846FFF798FE0024AE
:1021E00007E00949885DFFF735FE701C86B2601C68
:1021F000C4B2102CF5DB26E0000C0140D7360008F5
:10220000E72E0008FA2B0008272C0008681CC5B22E
:1022100039464846FFF77BFE002404E00020FFF724
:1022200019FE601CC4B2102CF8DB781CC1B2484601
:10223000FFF76DFE002404E00020FFF70BFE601C9A
:10224000C4B2102CF8DB09F1100000F0FF09A81C43
:10225000C5B218F80500002885D1BDE8F087000058
:1022600070B504460E462EB14FF40061FA48FEF7F1
:102270003AFA04E04FF40061F748FEF736FA10210D
:10228000F548FEF732FA002517E00121F248FEF783
:102290002CFA04F0800020B10221EF48FEF723FA67
:1022A00003E00221EC48FEF720FA0121EA48FEF79C
:1022B0001AFA6006040E681CC5B2082DE5DB102171
:1022C000E548FEF710FA4FF40061E348FEF70BFA19
:1022D00070BD10B504461CB90021A620FFF7C0FF51
:1022E000012C03D10021A720FFF7BAFF10BD10B5C4
:1022F00004463CB90021C820FFF7B2FF0021A1200D
:10230000FFF7AEFF012C07D10021C020FFF7A8FF87
:102310000021A020FFF7A4FF10BD10B500218D20E3
:10232000FFF79EFF00211420FFF79AFF0021AF2046
:10233000FFF796FF10BD10B500218D20FFF790FF2D
:1023400000211020FFF78CFF0021AE20FFF788FF4F
:1023500010BD70B500241CE004F1B001C8B200212A
:10236000FFF77EFF00210846FFF77AFF00211020CB
:10237000FFF776FF002508E0B84901EBC501085DCD
:102380000121FFF76DFF681CC5B2802DF4DB601CD6
:10239000C4B2082CE0DB70BD70B500240CE0002551
:1023A00006E00020AD4901EBC5010855681CC5B227
:1023B000802DF6DB601CC4B2082CF0DBFFF7C9FFF0
:1023C00070BDF0B514460B46CF1701EB5777C7F336
:1023D000C702CF1701EB5777FF10A1EBC707FEB27B
:1023E0000123B340DDB24CB19C4B03EBC0039B5CBB
:1023F0002B439A4F07EBC007BB541AE0974B03EBF4
:10240000C0039B5CDB43954F07EBC007BB54934B6A
:1024100003EBC0039B5C2B43904F07EBC007BB54FF
:102420008E4B03EBC0039B5CDB438C4F07EBC00779
:10243000BB54F0BD2DE9FF4F84B081468A46002091
:10244000029083460698A0EB09040798A0EB0A06C1
:10245000CDF80490CDF800A0002C01DD012705E0A7
:102460000CB9002702E04FF0FF376442002E02DD76
:102470004FF0010806E016B94FF0000802E04FF0F7
:10248000FF386642B44201DD254600E035460020B3
:1024900003901EE0009AD1B2019AD0B2119AFFF7D0
:1024A00090FF029820440290B3440298A84205DDB0
:1024B0000298401B0290019838440190AB4504DD1E
:1024C000ABEB050B0098404400900398401C80B291
:1024D0000390691C03988842DCDB08B0BDE8F08FEC
:1024E0002DE9F04306460F4690460025444643E05A
:1024F0003A1BD1B27219D0B20122FFF762FF3A1B28
:10250000D1B2721BD0B20122FFF75BFF3A19D1B2F0
:10251000721BD0B20122FFF754FF3A19D1B27219DF
:10252000D0B20122FFF74DFF7A19D1B23219D0B2E1
:102530000122FFF746FF7A1BD1B23219D0B2012235
:10254000FFF73FFF7A1BD1B2321BD0B20122FFF757
:1025500038FF7A19D1B2321BD0B20122FFF731FF16
:102560006D1C05FB05F004FB040008FB1809B9F11C
:10257000000F01DD641E6D1E6000604308FB08F162
:102580008842B5DABDE8F0832DE9FE4F074688465C
:1025900092461C460197CDF80080082C02D14FF0DE
:1025A00006091FE02046E31704EB5373DB102146B6
:1025B0004FEAE47C04EB5C7C4FEAEC0CA4EBCC0C23
:1025C000BCF1000F02D04FF0010C01E04FF0000C05
:1025D0006344224604EBD27C4FEA6C0C03FB0CF301
:1025E00003F0FF09AAF12000C6B200256BE0082C19
:1025F00007D106EB46001A4901EB400010F805B080
:102600001DE00C2C07D106EB4600164901EB8000BB
:1026100010F805B013E0102C05D1134800EB06109C
:1026200010F805B00BE0182C07D106EBC6000F49D7
:1026300001EB800010F805B001E0BDE8FE8F00203E
:10264000029029E00BF0010090B1414638460C9A07
:10265000FFF7B7FE16E00000000C01403408002030
:10266000C73C0008EF3E00086343000853490008D8
:102670000C9808B9012000E0002002464146384687
:10268000FFF79FFE4FEA6B0B08F1010000F0FF0817
:102690000298401CC0B2029002980828D2DB781C35
:1026A000C7B2082C0BD004EBD4714A100199791AE7
:1026B0008A4204D1019F00980830C0B20090DDF832
:1026C0000080681CC5B24D4591DB00BFB5E72DE920
:1026D000F84106460F4614461D46DDF81C8013E0FF
:1026E000CDF8008022782B4639463046FFF74CFF64
:1026F000082D02D1B01DC6B205E0284605EBD07109
:1027000006EB6101CEB2641C2078202802DB207821
:102710007E28E5DDBDE8F88110B50246012000E025
:1027200050430B1EA1F10104E1B2F9D110BD2DE916
:10273000FF4F82B0064691461F46DDE90F4A4FF033
:10274000000B082C01D14FF0020B002530E0781B64
:10275000401EC1B20A20FFF7DFFFB9FBF0F00A21EB
:10276000B0FBF1F201FB1208B8F1000F0ED104EB3F
:10277000D4710BEB610101FB0561C8B22346302225
:10278000CDE900A40399FFF7FFFE0FE004EBD4713D
:102790000BEB610101FB0561C8B208F13001CAB25F
:1027A0002346CDE900A40399FFF7EEFE681CC5B2ED
:1027B000BD42CCDB06B0BDE8F08F2DE9FC4F0746EB
:1027C000884616461C46BB46CDF804802046E217D4
:1027D00004EB5272D2102146E31704EB5373DB1063
:1027E000A4EBC3030BB1012300E000231A446243AE
:1027F00092B20092002555E0102C05D1D94800EB8B
:10280000461010F805A01BE0182C07D106EBC600F7
:10281000D54901EBC00010F805A011E0202C05D12E
:10282000D24800EBC61010F805A009E0402C05D1F5
:10283000CF4800EB462010F805A001E0BDE8FC8F72
:102840004FF000091CE00AF0010028B1414638466B
:102850000B9AFFF7B6FD09E00B9808B9012000E0DC
:102860000020024641463846FFF7ABFD4FEA6A0AB0
:1028700008F1010000F0FF0809F1010000F0FF0974
:10288000B9F1080FDFDB781CC7B2A7EB0B00A04241
:1028900004D15F4601980830C0B20190DDF8048091
:1028A000681C85B200988542A6DB00BFC6E708B564
:1028B000804689469246002600274BE04FB91023F8
:1028C000324618218020CDF800A0FFF776FF701C5B
:1028D000C6B2464522D14FF0000B1AE0012410E0A9
:1028E00000250AE0A34800EBC400415D601EA14A38
:1028F00002EBC0004155681CC5B2082DF2DB601C1C
:10290000C4B2902CECDBFFF724FD0BF1010000F0CA
:10291000FF0B4FEA09105845E0DC0026781CC7B2CF
:10292000102F00D10027012410E000250AE0914873
:1029300000EBC400415D601E8E4A02EBC0004155B1
:10294000681CC5B2082DF2DB601CC4B2902CECDB15
:10295000FFF7FFFCB2E72DE9FF4F05460E4617468D
:102960001C46DDF838904FF0000A0095B34620462B
:10297000E21704EB5272D2102146E31704EB5373B3
:10298000DB10A4EBC3030BB1012300E000231A44C6
:10299000D4B24FF0000845E0002003903BE00D98D2
:1029A00010F80A0002900AF101001FFA80FA0020D4
:1029B00001901DE0029800F0010028B14A4631461E
:1029C0002846FFF7FEFC0AE0B9F1000F01D1012013
:1029D00000E00020024631462846FFF7F2FC02984C
:1029E00040100290701CC6B20198401CC0B2019009
:1029F00001980828DEDB681CC5B20098281AB84286
:102A000004D1009D0BF1080000F0FF0B5E46039817
:102A1000401CC0B203900398B842C0DB08F101002B
:102A200000F0FF08A045B7DBBDE8FF8F08B5012126
:102A30000820FEF767F801214F48FDF778FE40F6C1
:102A40000340ADF8000010208DF8030003208DF83E
:102A5000020069464948FDF799FDBDF80010474856
:102A6000FDF741FE4FF480614448FDF73EFEC8206B
:102A7000FFF76DF94FF480614048FDF734FE002107
:102A8000AE20FFF7EDFB00210846FFF7E9FB002130
:102A90001020FFF7E5FB00214020FFF7E1FB0021BC
:102AA0008120FFF7DDFB0021CF20FFF7D9FB0021BC
:102AB000A120FFF7D5FB0021C820FFF7D1FB0021A3
:102AC000A620FFF7CDFB0021A820FFF7C9FB0021BE
:102AD0003F20FFF7C5FB0021D320FFF7C1FB0021FA
:102AE0000846FFF7BDFB0021D520FFF7B9FB002109
:102AF0008020FFF7B5FB0021D920FFF7B1FB0021B3
:102B0000F120FFF7ADFB0021DA20FFF7A9FB002140
:102B10001220FFF7A5FB0021DB20FFF7A1FB00211E
:102B20004020FFF79DFB00212020FFF799FB0021AB
:102B30000220FFF795FB00218D20FFF791FB00217C
:102B40001420FFF78DFB0021A420FFF789FB002153
:102B5000A620FFF785FBFFF71FFC0021AF20FFF742
:102B60007FFB08BDAF5600080F58000857580008F3
:102B7000D75800083408002000023000000C014043
:102B8000704770477047754600F02CF8AE46050058
:102B90006946534620F00700854618B020B5FDF77A
:102BA00025FBBDE820404FF000064FF000074FF036
:102BB00000084FF0000B21F00701AC46ACE8C0095B
:102BC000ACE8C009ACE8C009ACE8C0098D46704764
:102BD00010B50446AFF300802046BDE81040FDF775
:102BE000F0BA000000487047B40C002001491820DA
:102BF000ABBEFEE7260002007047BAFEB1B1B9A431
:102C0000B3CCD1A7D4BAC4EAD4C2C8D5B3C2D6C74C
:102C1000BAFAD6D2EABBB5DAD6DCD5FDB3A3C9E899
:102C2000D6C3D7B4CCAC001060028C008888FF8873
:102C30008800FE2222FE0004047E01001F0808080E
:102C40009F601F42827F000020202020FF000000A4
:102C5000FF4020100800002060201010FF0000003E
:102C60003F40404040780000040404040404FC0495
:102C700004040404040000202020202020203F2001
:102C8000202020202020002424A4FE2322003E22F5
:102C9000222222223E0000080601FF010640494987
:102CA000497F494949410040301196909091969052
:102CB00090981413503000040404040444847E06E5
:102CC0000504040404040000FE225A86100C242487
:102CD00025262424140C0000FF0408078041310F2E
:102CE00001013F41417100002018C744444444FCA5
:102CF000444444440400000404040704040404FF9E
:102D000004040404040400000000FE222222222203
:102D1000222222FE0000008040300F020202020246
:102D20000242827F000000000000FE8282828282D6
:102D30008282FE00000000000000FF404040404052
:102D40004040FF0000000000FE225A8608886818F4
:102D50000FE8080808080000FF04080720110D41CB
:102D6000817F0105093000109453321E3252100049
:102D70007E4242427E0000000000FF494949494925
:102D80004949FF0000000000109090FF9090100053
:102D9000FE222222FE000000003F101010BF403033
:102DA0000F0242827F00000000FC44444444FF4480
:102DB000444444FC000000403800003C4040434C88
:102DC000404070040830000000003E2A2A2A2A2AC7
:102DD0002A2A3E00000000888889494929190F19CC
:102DE0002949498988880008049392969A92FA940E
:102DF000939296FA0202004040472424140CFF04E8
:102E0000042444241C00000000FE82929292FE9250
:102E1000929282FE00000080601F00001E121212BB
:102E20001E40807F000000000202C2020202FE82F9
:102E3000828282820200004040407F4040407F40CA
:102E400040404040404000201808EAACA8A8AFA885
:102E5000A8ACEA0828180000003E02020202FF02A5
:102E60000212221E000000404042CC0040A09E8280
:102E700082829EA02020000000003F908840432CCA
:102E800010284641808000001715D55557557D55AF
:102E90005755D5151700004040407F55555555559D
:102EA00055557F4040400000083000FF2020202082
:102EB000FF2020222C200004040201FF8040300E5D
:102EC00001061820408000000484844424548F1498
:102ED00024448484040000413900003C4040424CBA
:102EE0004040700409310000E010080810E00000C4
:102EF0000F102020100F00001010F800000000003C
:102F000020203F2020000000000000000000000002
:102F100000000000000000000000000000000000B1
:102F200000000000000000000000000000000000A1
:102F30000000000000000000000000000000000091
:102F40000000000000000000000000000000000081
:102F50000000000000000000000000000000000071
:102F60000000000000000000000000000000000061
:102F70000000000000000000000000000000000051
:102F80000000000000000000000000000000000041
:102F90000000000000000000000000000000000031
:102FA0000000000000000000000000000000000021
:102FB0000000000000000000000000000000000011
:102FC0000000000000000000000000000000000001
:102FD00000000000000000000000000000000000F1
:102FE00000000000000000000000000000000000E1
:102FF00000000000000000000000000000000000D1
:1030000000000000000000000000000000000000C0
:1030100000000000000000000000000000000000B0
:1030200000000000000000000000000000000000A0
:103030000000000000000000000000000000000090
:103040000000000000000000000000000000000080
:103050000000000000000000000000000000000070
:103060000000000000000000000000000000000060
:103070000000000000000000000000000000000050
:103080000000000000000000000000000000000040
:103090000000000000000000000000000000000030
:1030A0000000000000000000000000000000000020
:1030B0000000000000000000000000000000000010
:1030C0000000000000000000000000000000000000
:1030D00000000000000000000000000000000000F0
:1030E00000000000000000000000000000000000E0
:1030F00000000000000000000000F80000000000D8
:103100000000333000000000100C06100C06000018
:103110000000000000000040C07840C0784000047B
:103120003F04043F040400007088FC0830000000E5
:103130001820FF211E0000F008F000E01800000039
:10314000211C031E211E0000F00888700000001ED4
:103150002123241927211010160E00000000000062
:1031600000000000000000000000E0180402000061
:103170000000071820400000020418E000000000D2
:1031800040201807000000404080F08040400002CE
:1031900002010F01020200000000F0000000000127
:1031A00001011F010101000000000000000000807B
:1031B000B0700000000000000000000000000000EF
:1031C00001010101010101000000000000000000F8
:1031D0003030000000000000000000806018040093
:1031E0006018060100000000E010080810E0000070
:1031F0000F102020100F00001010F8000000000039
:1032000020203F202000000070080808887000007F
:1032100030282422213000003008888848300000FF
:1032200018202020110E000000C02010F80000001F
:10323000070424243F240000F808888808080000B8
:1032400019212020110E0000E010888818000000CD
:103250000F112020110E0000380808C8380800009F
:1032600000003F000000000070880808887000001F
:103270001C222121221C0000E010080810E00000A0
:1032800000312222110F00000000C0C00000000029
:10329000000030300000000000008000000000004E
:1032A0000080600000000000008040201008000046
:1032B000010204081020004040404040404000040B
:1032C00004040404040400000810204080000000EE
:1032D00020100804020100007048080808F00000EF
:1032E00000003036010000C030C828E810E00007B8
:1032F00018272423140B000000C038E00000002031
:103300003C23020227382008F888888870000020B3
:103310003F202020110E00C03008080808380007A0
:103320001820202010080008F808080810E00020E5
:103330003F202020100F0008F88888E8081000209F
:103340003F20202320180008F88888E80810002073
:103350003F200003000000C03008080838000007C4
:10336000182020221E020008F808000008F8082093
:103370003F210101213F20000808F8080800000053
:1033800020203F2020000000000808F8080800C0A6
:103390008080807F00000008F888C028180800207E
:1033A0003F20012638200008F80800000000002017
:1033B0003F20202020300008F8F800F8F80800200E
:1033C0003F003F003F200008F830C00008F8082008
:1033D0003F200007183F00E01008080810E0000F29
:1033E00010202020100F0008F808080808F000201E
:1033F0003F210101010000E01008080810E0000F63
:1034000018242438504F0008F888888888700020D5
:103410003F2000030C3020007088080808380000A6
:1034200038202121221C00180808F808081800007C
:1034300000203F2000000008F808000008F80800FD
:103440001F202020201F000878880000C8380800AE
:103450000007380E010000F80800F80008F8000323
:103460003C0700073C0300081868808068180820A3
:10347000302C03032C30200838C800C8380800005E
:1034800000203F2000000010080808C8380800206D
:1034900038262120201800000000FE020202000051
:1034A00000007F40404000000C30C00000000000E1
:1034B0000000010638C00000020202FE0000000009
:1034C0004040407F000000000004020202040000AF
:1034D000000000000000000000000000000000806C
:1034E0008080808080808000020204000000000054
:1034F00000000000000000000080808080000000CC
:1035000019242222223F2008F800808000000000B9
:103510003F112020110E000000008080800000007C
:103520000E112020201100000000808088F800008B
:103530000E112020103F20000080808080000000BD
:103540001F222222221300008080F0888888180021
:1035500020203F202000000000808080808000002C
:103560006B94949493600008F800808080000020A1
:103570003F210000203F20008098980000000000BC
:1035800020203F20200000000000809898000000CC
:10359000C08080807F000008F800008080800020CC
:1035A0003F24022D302000000808F8000000000031
:1035B00020203F20200000808080808080800020AC
:1035C0003F20003F20003F8080008080800000205E
:1035D0003F210000203F200000808080800000000C
:1035E0001F202020201F008080008080000000809D
:1035F000FFA12020110E00000000808080800000CC
:103600000E112020A0FF808080800080808000201C
:10361000203F212000010000008080808080000089
:1036200033242424241900008080E08080000000DE
:1036300000001F202000008080000000808000002B
:103640001F202020103F208080800000808080008C
:10365000010E300806010080800080008080800F0D
:10366000300C030C300F0000808000808080000050
:1036700020312E0E312000808080000080808080EC
:10368000818E70180601000080808080808000009C
:1036900021302C2221300000000000807C0202003A
:1036A000000000003F404000000000FF000000005C
:1036B000000000FF0000000002027C80000000000B
:1036C00040403F0000000000060101020204040027
:1036D00000000000000000000000000000000000EA
:1036E00000000000000000000000F80000000000E2
:1036F0000000333000000000100C06100C06000023
:103700000000000000000040C07840C07840000485
:103710003F04043F040400007088FC0830000000EF
:103720001820FF211E0000F008F000E01800000043
:10373000211C031E211E0000F00888700000001EDE
:103740002123241927211010160E0000000000006C
:1037500000000000000000000000E018040200006B
:103760000000071820400000020418E000000000DC
:1037700040201807000000404080F08040400002D8
:1037800002010F01020200000000F0000000000131
:1037900001011F0101010000000000000000008085
:1037A000B0700000000000000000000000000000F9
:1037B0000101010101010100000000000000000002
:1037C000303000000000000000000080601804009D
:1037D0006018060100000000E010080810E000007A
:1037E0000F102020100F00001010F8000000000043
:1037F00020203F202000000070080808887000008A
:103800003028242221300000300888884830000009
:1038100018202020110E000000C02010F800000029
:10382000070424243F240000F808888808080000C2
:1038300019212020110E0000E010888818000000D7
:103840000F112020110E0000380808C838080000A9
:1038500000003F0000000000708808088870000029
:103860001C222121221C0000E010080810E00000AA
:1038700000312222110F00000000C0C00000000033
:103880000000303000000000000080000000000058
:103890000080600000000000008040201008000050
:1038A0000102040810200040404040404040000415
:1038B00004040404040400000810204080000000F8
:1038C00020100804020100007048080808F00000F9
:1038D00000003036010000C030C828E810E00007C2
:1038E00018272423140B000000C038E0000000203B
:1038F0003C23020227382008F888888870000020BE
:103900003F202020110E00C03008080808380007AA
:103910001820202010080008F808080810E00020EF
:103920003F202020100F0008F88888E808100020A9
:103930003F20202320180008F88888E8081000207D
:103940003F200003000000C03008080838000007CE
:10395000182020221E020008F808000008F808209D
:103960003F210101213F20000808F808080000005D
:1039700020203F2020000000000808F8080800C0B0
:103980008080807F00000008F888C0281808002088
:103990003F20012638200008F80800000000002021
:1039A0003F20202020300008F8F800F8F808002018
:1039B0003F003F003F200008F830C00008F8082012
:1039C0003F200007183F00E01008080810E0000F33
:1039D00010202020100F0008F808080808F0002028
:1039E0003F210101010000E01008080810E0000F6D
:1039F00018242438504F0008F888888888700020E0
:103A00003F2000030C3020007088080808380000B0
:103A100038202121221C00180808F8080818000086
:103A200000203F2000000008F808000008F8080007
:103A30001F202020201F000878880000C8380800B8
:103A40000007380E010000F80800F80008F800032D
:103A50003C0700073C0300081868808068180820AD
:103A6000302C03032C30200838C800C83808000068
:103A700000203F2000000010080808C83808002077
:103A800038262120201800000000FE02020200005B
:103A900000007F40404000000C30C00000000000EB
:103AA0000000010638C00000020202FE0000000013
:103AB0004040407F000000000004020202040000B9
:103AC0000000000000000000000000000000008076
:103AD000808080808080800002020400000000005E
:103AE00000000000000000000080808080000000D6
:103AF00019242222223F2008F800808000000000C4
:103B00003F112020110E0000000080808000000086
:103B10000E112020201100000000808088F8000095
:103B20000E112020103F20000080808080000000C7
:103B30001F222222221300008080F088888818002B
:103B400020203F2020000000008080808080000036
:103B50006B94949493600008F800808080000020AB
:103B60003F210000203F20008098980000000000C6
:103B700020203F20200000000000809898000000D6
:103B8000C08080807F000008F800008080800020D6
:103B90003F24022D302000000808F800000000003B
:103BA00020203F20200000808080808080800020B6
:103BB0003F20003F20003F80800080808000002068
:103BC0003F210000203F2000008080808000000016
:103BD0001F202020201F00808000808000000080A7
:103BE000FFA12020110E00000000808080800000D6
:103BF0000E112020A0FF8080808000808080002027
:103C0000203F212000010000008080808080000093
:103C100033242424241900008080E08080000000E8
:103C200000001F2020000080800000008080000035
:103C30001F202020103F2080808000008080800096
:103C4000010E300806010080800080008080800F17
:103C5000300C030C300F000080800080808000005A
:103C600020312E0E312000808080000080808080F6
:103C7000818E7018060100008080808080800000A6
:103C800021302C2221300000000000807C02020044
:103C9000000000003F404000000000FF0000000066
:103CA000000000FF0000000002027C800000000015
:103CB00040403F0000000000060101020204040031
:103CC00000000000000000000000000000000000F4
:103CD0002F000000000700070000147F147F14006D
:103CE000242A7F2A120062640813230036495522D1
:103CF0005000000503000000001C224100000041AC
:103D0000221C000014083E08140008083E080800A1
:103D10000000A060000008080808080000606000BB
:103D200000002010080402003E5149453E000042B8
:103D30007F4000004261514946002141454B31001E
:103D40001814127F10002745454539003C4A49495F
:103D5000300001710905030036494949360006491A
:103D600049291E00003636000000005636000000CB
:103D700008142241000014141414140000412214E9
:103D80000800020151090600324959513E007C12D7
:103D900011127C007F49494936003E4141412200D1
:103DA0007F4141221C007F49494941007F0909099F
:103DB00001003E4149497A007F0808087F00004120
:103DC0007F4100002040413F01007F081422410054
:103DD0007F40404040007F020C027F007F040810BB
:103DE0007F003E4141413E007F09090906003E41F6
:103DF00051215E007F091929460046494949310091
:103E000001017F0101003F4040403F001F20402052
:103E10001F003F4038403F00631408146300070848
:103E200070080700615149454300007F414100008F
:103E3000552A552A55000041417F00000402010225
:103E400004004040404040000001020400002054B3
:103E5000545478007F484444380038444444200097
:103E6000384444487F00385454541800087E0901EF
:103E7000020018A4A4A47C007F0804047800004475
:103E80007D4000004080847D00007F1028440000B9
:103E900000417F4000007C04180478007C08040482
:103EA0007800384444443800FC24242418001824A2
:103EB0002418FC007C0804040800485454542000D2
:103EC000043F444020003C4040207C001C20402017
:103ED0001C003C4030403C004428102844001CA0FA
:103EE000A0A07C004464544C441414141414140012
:103EF00000000000000000000000000000FC0000C6
:103F000000000002000000000C020C020000000093
:103F100000000090D0BCD0BC90000300030000184B
:103F200024FE448C000302070201001824D8B04C80
:103F300080000300010201C038E438E00001020201
:103F4000010202080600000000000000000000005E
:103F50000000F80402000000010204000204F8005E
:103F6000000004020100009060F860900000000171
:103F70000000002020FC20200000000100000000C4
:103F80000000000000080600000000202020202083
:103F9000000000000000000000000000000002001F
:103FA0000000000080601C0200040300000000F814
:103FB000040404F8000102020201000008FC0000F1
:103FC00000000203020000188444241800030202C7
:103FD00002020008042424D8000102020201004069
:103FE000B088FC80000000000302003C242424C4AC
:103FF00000010202020100F824242CC00001020288
:104000000201000C04E41C0400000003000000D8BE
:10401000242424D80001020202010038444444F858
:104020000000030202010000001000000000000276
:10403000000000000020000000000006000000005A
:10404000205088040200000000010290909090909F
:10405000000000000000000002048850200002015F
:104060000000001804C4241800000002000000F83A
:1040700004E494F80001020202020000E09CF080D7
:104080000002030000030204FC2424D800020302FF
:10409000020100F80404040C000102020201000401
:1040A000FC0404F80002030202010004FC24740C66
:1040B0000002030202030004FC24740C0002030249
:1040C000000000F0080444CC40000102020100049A
:1040D000FC2020FC040203000003020404FC04048E
:1040E00000020203020200000404FC0404060404AB
:1040F00003000004FC24D00C0402030200030204A9
:10410000FC04000000020302020203FC3CC03CFC71
:104110000003000300030004FC30C4FC040203029B
:10412000000300F8040404F8000102020201000484
:10413000FC24241800020302000000F8848404F820
:104140000001020207050004FC2464980002030237
:10415000000302182424448C000302020201000C14
:1041600004FC040C0000020302000004FC0000FC3C
:1041700004000102020100047C80E01C0400000332
:104180000000001CE03CE01C0000030003000004F1
:104190009C609C0400020300030200041CE01C0459
:1041A000000002030200000C84641C0400020302ED
:1041B0000203000000FE02020000000704040000E9
:1041C0000E30C00000000000010200000202FE00EC
:1041D00000000404070000000402040000000000C6
:1041E000000000000000000000080808080808009F
:1041F00000020000000000000000000040A0A0C07D
:104200000000010202030204FC2020C0000003029F
:1042100002010000C0202060000001020202000034
:10422000C02024FC0000010202030200C0A0A0C0C4
:10423000000001020202000020F82424040002030E
:104240000202000040A0A0602000070A0A0A04043D
:10425000FC2020C0000203020003020020E4000052
:1042600000000203020000000020E400000808082B
:1042700007000004FC80E020200203020003020487
:1042800004FC000000020203020200E020E020C063
:104290000003000300030020E02020C0000203020E
:1042A00000030200C02020C0000001020201002023
:1042B000E02020C000080F0A02010000C02020E01A
:1042C000000001020A0F0820E04020200002030243
:1042D0000000000060A0A020000002020203000015
:1042E00020F820000000000102020020E00020E091
:1042F0000000010202030220E02080602000000391
:104300000100006080E080600000030003000020E6
:10431000608060200002030003020020E020806033
:10432000200808070100000020A060200000020310
:10433000020200000020DE0200000000070400006E
:104340000000FF00000000000F00000002DE20005F
:104350000000040700000002010204040200000043
:10436000000000000000000000000000000000004D
:10437000000000000000F8000000000000003330E2
:1043800000000000100C06100C06000000000000E9
:1043900000000040C07840C0784000043F04043F63
:1043A000040400007088FC08300000001820FF2181
:1043B0001E0000F008F000E018000000211C031EA1
:1043C000211E0000F00888700000001E212324191F
:1043D00027211010160E0000000000000000000051
:1043E000000000000000E0180402000000000718B0
:1043F00020400000020418E00000000040201807E0
:10440000000000404080F0804040000202010F01A7
:10441000020200000000F0000000000101011F0185
:10442000010100000000000000000080B0700000EA
:104430000000000000000000000000000101010178
:104440000101010000000000000000003030000009
:1044500000000000000000806018040060180601E1
:1044600000000000E010080810E000000F102020FD
:10447000100F00001010F8000000000020203F2066
:1044800020000000700808088870000030282422EE
:104490002130000030088888483000001820202093
:1044A000110E000000C02010F800000007042424B2
:1044B0003F240000F80888880808000019212020FF
:1044C000110E0000E0108888180000000F11202055
:1044D000110E0000380808C83808000000003F002E
:1044E0000000000070880808887000001C2221214C
:1044F000221C0000E010080810E000000031222219
:10450000110F00000000C0C00000000000003030AB
:10451000000000000000800000000000008060003B
:104520000000000000804020100800000102040884
:104530001020004040404040404000040404040477
:10454000040400000810204080000000201008042F
:10455000020100007048080808F000000000303632
:10456000010000C030C828E810E000071827242305
:10457000140B000000C038E0000000203C230202C1
:1045800027382008F8888888700000203F202020E5
:10459000110E00C030080808083800071820202035
:1045A00010080008F808080810E000203F2020202C
:1045B000100F0008F88888E8081000203F2020230A
:1045C00020180008F88888E8081000203F20000321
:1045D000000000C03008080838000007182020221A
:1045E0001E020008F808000008F808203F21010119
:1045F000213F20000808F8080800000020203F2084
:1046000020000000000808F8080800C08080807FB3
:1046100000000008F888C028180800203F20012664
:1046200038200008F8080000000000203F2020206B
:1046300020300008F8F800F8F80800203F003F009C
:104640003F200008F830C00008F808203F2000078D
:10465000183F00E01008080810E0000F102020208C
:10466000100F0008F808080808F000203F21010199
:10467000010000E01008080810E0000F182424389A
:10468000504F0008F8888888887000203F20000379
:104690000C302000708808080838000038202121DC
:1046A000221C00180808F8080818000000203F2005
:1046B00000000008F808000008F808001F2020206B
:1046C000201F000878880000C83808000007380E4E
:1046D000010000F80800F80008F800033C07000794
:1046E0003C0300081868808068180820302C0303F9
:1046F0002C30200838C800C83808000000203F20AF
:1047000000000010080808C83808002038262120BA
:10471000201800000000FE020202000000007F409E
:10472000404000000C30C000000000000000010606
:1047300038C00000020202FE000000004040407F3E
:10474000000000000004020202040000000000005B
:1047500000000000000000000000008080808080D9
:1047600080808000020204000000000000000000C1
:1047700000000000008080808000000019242222B8
:10478000223F2008F8008080000000003F11202018
:10479000110E000000008080800000000E1120201B
:1047A000201100000000808088F800000E112020F9
:1047B000103F200000808080800000001F22222205
:1047C000221300008080F0888888180020203F2075
:1047D0002000000000808080808000006B94949412
:1047E00093600008F8008080800000203F210000D6
:1047F000203F2000809898000000000020203F20EB
:10480000200000000000809898000000C080808098
:104810007F000008F8000080808000203F24022DE7
:10482000302000000808F8000000000020203F2091
:104830002000008080808080808000203F20003F1A
:1048400020003F8080008080800000203F21000009
:10485000203F200000808080800000001F2020205A
:10486000201F00808000808000000080FFA12020A9
:10487000110E000000008080808000000E112020BA
:10488000A0FF80808080008080800020203F212049
:1048900000010000008080808080000033242424F8
:1048A000241900008080E0808000000000001F20AC
:1048B0002000008080000000808000001F20202059
:1048C000103F20808080000080808000010E300832
:1048D00006010080800080008080800F300C030C77
:1048E000300F0000808000808080000020312E0E7C
:1048F000312000808080000080808080818E701850
:1049000006010000808080808080000021302C2201
:1049100021300000000000807C0202000000000046
:104920003F404000000000FF00000000000000FFCA
:104930000000000002027C800000000040403F00B8
:104940000000000006010102020404000000000053
:104950000000000000000000000000000000000057
:104960000000000000000000000000000000000047
:10497000000000000000000000000000F0F0F00067
:104980000000000000000000017F010000000000A6
:10499000000000001C1C1C000000000000806030B3
:1049A0001C8C60301C0C00000000000000000000A7
:1049B00000000000000000000000000000000000F7
:1049C0000000E00000000000E000000086E69F8696
:1049D000868686E69F860000011F01010101011FF6
:1049E000010100000080C06020F820E0C00000004D
:1049F0000003070C18FF70E18100000000070F1092
:104A0000107F100F0700008060206080000000E031
:104A10002000000F3020309F70DC371030C00000C5
:104A200000100E03000718101807000000C0202017
:104A3000E0C0000000000080E01F38E88703C43CAD
:104A4000040000070F1810100B070D1010080000CD
:104A5000808C4C38000000000000000000000000C6
:104A60000000000000000000000000000000000046
:104A700000000000000000000080E030080400009A
:104A800000000000FEFF0100000000000000000028
:104A900000030F1820400000040830E080000000F0
:104AA0000000000000000001FFFE00000000000008
:104AB0004020180F0300000000000000000000006C
:104AC00000C00000000000004266663C18FF183C71
:104AD00066664200000000000003000000000000C5
:104AE0000000000000800000000000001010101006
:104AF00010FF101010101000000000000003000054
:104B000000000000000000000000000000000000A5
:104B1000000000000000000000000000808C4C3805
:104B20000000000000000000000000000000000085
:104B300000000000101010101010101010100000D5
:104B40000000000000000000000000000000000065
:104B50000000000000000000000000000000000055
:104B600000000000001C1C1C0000000000000000F1
:104B700000000000000000E0380C00000000008091
:104B8000701C03000000000060380E0100000000EF
:104B9000000000000080C060202060C08000000095
:104BA000FEFF010000000001FFFE000001070E18DB
:104BB0001010180E0701000000808080C0E0000087
:104BC0000000000000000000FFFF000000000000E7
:104BD000001010101F1F1010100000008040202037
:104BE000202060C080000000030300804020381FA8
:104BF000070000001C1A1918181818181F000000C8
:104C000080C020202060C08000000000030300104E
:104C100010182FE780000000070F10101010180F59
:104C2000070000000000000000C0E0F000000000ED
:104C3000C0B088868180FFFF8080000000000000F7
:104C400010101F1F1010000000E0606060606060C6
:104C500060000000003F1008080818F0E0000000A5
:104C6000070B101010101C0F030000000080C04044
:104C7000202020E0C0000000FCFF211008080818D8
:104C8000F0E0000001070C18101010080F030000DE
:104C900000C0E06060606060E06000000003000051
:104CA00000E0180700000000000000001F1F0000C7
:104CB0000000000080C0602020202060C080000034
:104CC00087EF2C1818303068CF830000070F0810CA
:104CD000101010180F07000000C0C020202020C0B6
:104CE000800000001F3F604040402010FFFE000099
:104CF000000C1C101010080F030000000000000042
:104D00000000000000000000000000000E0E0E0079
:104D100000000000000000001C1C1C00000000003F
:104D20000000000000000000000000000000000083
:104D30000C0C0000000000000000000058380000CB
:104D40000000000000000000000080402010000073
:104D50000010284482010000000000000000000054
:104D60000001020408100000000000000000000024
:104D7000000000008484848484848484848400000B
:104D800000000000000000000000000000102040B3
:104D900080000000000000000000000000018244CC
:104DA00028100000001008040201000000000000AC
:104DB000C020201010101030E0C0000003030000DD
:104DC000F010080C070300000000001C1C1C000071
:104DD000000000000000C0406020202040C0000013
:104DE000FCFF01F00E03C1FE03807F0001070E08E7
:104DF000111110110904020000000080E0E0000021
:104E00000000000000807C4340477FF880000010D5
:104E1000181F1000000000131F1C1020E0E02020CD
:104E2000202060C080000000FFFF10101010182F1D
:104E3000E78000101F1F1010101010180F0700003F
:104E40000080C0402020202060E00000FCFF010026
:104E5000000000000001000001070E1810101008EB
:104E600004030020E0E02020202040C0800000005B
:104E7000FFFF000000000001FFFE00101F1F1010C8
:104E80001018080E07010020E0E02020202020203C
:104E900060800000FFFF101010107C000000001068
:104EA0001F1F10101010101018060020E0E0202026
:104EB0002020206060800000FFFF101010107C0098
:104EC000000100101F1F1000000000000000000083
:104ED0000080C06020202040E0000000FCFF0100B6
:104EE000004040C0C140400001070E181010100FD4
:104EF0000F000020E0E0200000000020E0E02000A3
:104F0000FFFF101010101010FFFF00101F1F1000E7
:104F1000000000101F1F100000202020E0E02020D3
:104F20002000000000000000FFFF00000000000063
:104F3000001010101F1F10101000000000000020B3
:104F40002020E0E020202000000000000000FFFF03
:104F50000000000060E0808080C07F3F00000020F3
:104F6000E0E020000020A06020200000FFFF3018BB
:104F70007CE3C000000000101F1F10000001131F81
:104F80001C181020E0E020000000000000000000DD
:104F9000FFFF000000000000000000101F1F1010A5
:104FA0001010101018060020E0E0E000000000E003
:104FB000E0E02000FF013FFEC0E01E01FFFF001007
:104FC0001F1000031F0300101F1F1020E0E0C0008F
:104FD0000000000020E02000FF0003071C78E080B4
:104FE00000FF00101F100000000000030F1F000052
:104FF0000080C060202060C080000000FEFF010033
:1050000000000000FFFE000001070E181010180C31
:1050100007010020E0E0202020202060C080000068
:10502000FFFF2020202020301F0F00101F1F100026
:1050300000000000000000000080C060202060C070
:1050400080000000FEFF010000000000FFFE0000E5
:1050500001070E1111133C7C67210020E0E02020A5
:1050600020202060C0800000FFFF101030F0D0082A
:105070000F0700101F1F10000000030F1C1010006E
:1050800080C060202020204040E00000070F0C1866
:1050900018303060E08100001F0C0810101010184C
:1050A0000F07008060202020E0E0202020608001A9
:1050B00000000000FFFF00000000010000000010E1
:1050C0001F1F100000000020E0E020000000000092
:1050D00020E02000FFFF00000000000000FF0000B3
:1050E000070F1810101010100807002060E0E020D3
:1050F00000000020E060200000077FF88000807C36
:1051000003000000000000071F1C07000000002033
:10511000E0E02000E0E0200020E0200007FFF8E0D1
:105120001FFFFCE01F00000000031F0300011F031E
:10513000000000002060E0A0000020E060200000EF
:105140000000038F7CF8C6010000000010181E1339
:105150000001171F1810002060E0E0200000002070
:10516000E06020000001073EF8E0180700000000A2
:10517000000010101F1F1010000000008060202091
:105180002020A0E0E0200000000000C0F03E0F035F
:1051900000000000101C1F1710101010180600004F
:1051A00000000000FC0404040404000000000000EF
:1051B000FF00000000000000000000007F404040B1
:1051C000404000000010E00000000000000000006F
:1051D000000000031C6080000000000000000000D0
:1051E0000000030C70800000000404040404FC00B0
:1051F00000000000000000000000FF0000000000B0
:105200000040404040407F000000000000001008C7
:105210000C040C081000000000000000000000005A
:10522000000000000000000000000000000000007E
:10523000000000000000000000000000000000006E
:1052400000000000000000808080808080808080DE
:1052500080808000000004040808000000000000B6
:10526000000000000000000000000000000000003E
:10527000000000000000000000000000000000002E
:10528000000000000098D844642424FCF8000000CA
:105290000F1F18101010081F1F10180020E0F0003A
:1052A000000000000000000000FFFF180804040CCC
:1052B000F8F00000001F0F18101010180F03000066
:1052C000000000000000000000000000E0F81804EA
:1052D00004043C3800000000030F0C1010101008EC
:1052E0000600000000000000000020E0F0000000C8
:1052F000E0F81C04040408FFFF000000030F18106E
:105300001010081F0F08000000000000000000003F
:105310000000000000E0F8484444444C787000006D
:1053200000030F0C1810101008040000000000808B
:10533000C0602020E0C00000040404FFFF04040457
:10534000040000000010101F1F10101000000000CB
:105350000000000000000000000000000070F88C59
:1053600004048CF874040C007076CF8D8D8D89C880
:105370007870000020E0F000000000000000000055
:1053800000FFFF08040404FCF8000000101F1F10B9
:105390000000101F1F1000000000000060600000EF
:1053A0000000000000040404FCFC000000000000F9
:1053B000001010101F1F101010000000000000004F
:1053C0000000606000000000000000040404FCFC19
:1053D0000000000000C0C08080C07F3F00000000CF
:1053E00020E0F000000000000000000000FFFF804F
:1053F000C0F41C0404000000101F1F1100031F1C38
:105400001010000000202020E0F00000000000004C
:1054100000000000FFFF000000000000001010105E
:105420001F1F10101000000000000000000000000E
:1054300000000004FCFC0804FCFC0804FCFC001058
:105440001F1F10001F1F10001F1F10000000000072
:10545000000000000000000004FCFC08080404FC3C
:10546000F8000000101F1F100000101F1F10000088
:10547000000000000000000000000000E0F0180C38
:1054800004040C18F0E00000030F0C101010100CB6
:105490000F030000000000000000000000000000FA
:1054A00004FCFC080404040CF8F0000080FFFF88F2
:1054B0009010101C0F03000000000000000000000E
:1054C00000000000E0F81C04040408F8FC000000E0
:1054D000030F1810109088FFFF80000000000000EC
:1054E00000000000000000040404FCFC1008040498
:1054F0000C0C001010101F1F1010100000000000F6
:10550000000000000000000000000000003078CC27
:10551000C48484840C1C0000001E18101010111983
:105520000F06000000000000C000000000000000A6
:10553000040404FFFF040404000000000000000F46
:105540001F1010100C000000000000000000000000
:105550000000000004FCFE00000004FCFE0000004F
:10556000000F1F181010081F0F0800000000000097
:105570000000000000000000040C3CFCC40000C45B
:105580003C0C0400000000010F1E0E010000000092
:105590000000000000000000000000043CFCC4000B
:1055A000E47CFC84807C040000071F070000071FC8
:1055B00007000000000000000000000000000000E4
:1055C00004041C7CE4C0341C0404000010101C16ED
:1055D00001131F1C18100000000000000000000054
:1055E00000000000040C3CFCC400C43C04040000A7
:1055F00000C080C1370E0100000000000000000064
:105600000000000000000000001C0404C4F47C1C26
:105610000400000000101C1F17111010180E0000CD
:10562000000000000000F80C040000000000000072
:105630001028EF00000000000000000000003F60A4
:10564000400000000000000000FF0000000000001B
:105650000000000000FF000000000000000000004B
:1056600000FF00000000000000040CF80000000033
:1056700000000000000000EF281000000000000003
:105680000040603F00000000000000001806020219
:105690000408102020300800000000000000000076
:1056A00000000000000000000000000000000000FA
:1056B00000F010101010FF10101010F0000000008B
:1056C000000F04040404FF040404040F000000405D
:1056D00040405F555555755555555F404040000059
:1056E00040200F094989790909090F20400000006D
:1056F000FE02424ACA4A4ACA4A4A4202FE00000020
:10570000FF40504C4340404F50505C40FF00000071
:1057100000F888888888FF88888888F8000000005A
:10572000001F080808087F888888889F80F000800C
:10573000828282828282E2A2928A868280800000B5
:105740000000000040807F0000000000000000100A
:105750001010FF109008888888FF88888808000447
:1057600044827F01808040432C10284681800000C5
:1057700010101010D030FF30D0121C10100000108C
:10578000080402010000FF000001020408100004E8
:10579000040484E43C2724242424E40404040004B2
:1057A000020100FF0909090949897F000000000082
:1057B000FE225A8600FE9292929292FE0000000013
:1057C000FF04080700FF4020030C142241400000A2
:1057D000804020180680000718204080000000014B
:1057E00000207028262120202438600001010000BC
:1057F0001012929292929292121202FE00000000F7
:1058000000003F101010103F0040807F000000009B
:105810000000C080808080808080FC8480808080C8
:105820008080C0C0000000000000FF7F404040407A
:105830004040FF40404040404040FF7F00000000AB
:10584000000000000000000000007F700000000069
:105850000000000000000000000000000000000048
:10586000000000000000FCF8000000000000000044
:105870000000000000000000000000FFFE02020225
:10588000020202020202FFFF0202020202020202FE
:1058900002FF0300000000000000001F1F040404BA
:1058A000040404040404FFFF0404040404040404C2
:1058B000041F0000000000000000000000000000C5
:1058C0000000000000007F3F00000000000000001A
:1058D00000000000000000000000000000000000C8
:1058E00000000000000000000000000000000000B8
:1058F00000000000F8F8F0F0702000000000000048
:105900000000000000000000000000000000000097
:105910000000000000000000000000000000008007
:105920000000000000000000000000000000000077
:1059300000000000FFFFFFFF00000000000000006B
:105940000000000000000000000000808000000057
:105950000000000000000000000000000000000047
:10596000FFFFFE06060606060606060606060606ED
:1059700006060606FFFFFFFF0606060606060606E3
:1059800006060606060606060606FFFFFFFF0702D6
:105990000000000000000000000000000000000007
:1059A000FFFFFF00000000000000000000000000FA
:1059B00000000000FFFFFFFF0000000000000000EB
:1059C00000000000000000000000FFFFFFFF0000DB
:1059D00000000000000000000000000000000000C7
:1059E000FFFFFF1818181818181818181818181882
:1059F00018181818FFFFFFFF18181818181818188B
:105A000018181818181818181818FFFFFFFF0000AA
:105A10000000000000000000000000000000000284
:105A20000101000000000000000000000000000074
:105A300000000000FFFFFFFF00000000000000006A
:105A40000000000000000000000001010000000054
:105A50000000000000000000000000000000000046
:105A60000000000000000000000000000000000036
:105A700000000000FFFFFFFF00000000000000002A
:105A80000000000000000000000000000000000016
:105A90000000000000000000000000000000000006
:105AA00000000000000000000000000000000000F6
:105AB000000000001F1F0F0F00000000000000008A
:105AC00000000000000000000000000000000000D6
:105AD0000000000000000000F85A0008000000204C
