:020000040800F2
:1000000090060020190A0008DD010008DF01000841
:10001000E3010008E7010008EB0100080000000010
:10002000000000000000000000000000F1010008D6
:10003000EF01000800000000F3010008F5010008CE
:10004000330A0008330A0008330A0008330A00089C
:10005000330A0008330A0008330A0008330A00088C
:10006000330A0008330A0008330A0008330A00087C
:10007000330A0008330A0008330A0008330A00086C
:10008000330A0008330A0008330A0008330A00085C
:10009000330A0008330A0008330A0008330A00084C
:1000A000330A0008330A0008330A0008330A00083C
:1000B000330A0008330A0008330A0008330A00082C
:1000C000330A0008330A0008330A0008330A00081C
:1000D000330A0008330A0008330A0008330A00080C
:1000E000330A0008330A0008330A0008330A0008FC
:1000F000330A0008330A0008330A0008330A0008EC
:10010000330A0008330A0008330A0008330A0008DB
:10011000330A0008330A0008330A0008330A0008CB
:10012000330A0008330A0008330A0008330A0008BB
:1001300000F002F800F042F80AA090E8000C8244B7
:100140008344AAF10107DA4501D100F037F8AFF294
:10015000090EBAE80F0013F0010F18BFFB1A43F0A5
:1001600001031847E412000004130000103A24BFF2
:1001700078C878C1FAD8520724BF30C830C144BF0C
:1001800004680C607047000000230024002500264E
:10019000103A28BF78C1FBD8520728BF30C148BFEA
:1001A0000B607047642901F04980732901F00D81CB
:1001B000002070471FB51FBD10B510BD01F009F933
:1001C0001146FFF7F7FF00F0FCF901F027F903B43F
:1001D000FFF7F2FF03BC01F02FF90000704700BFEA
:1001E000FEE700BFFEE700BFFEE700BFFEE7704787
:1001F0007047704702480068401E01490860704718
:10020000140000200CB50020019000906C4800689C
:1002100040F480306A49086000BF6948006800F413
:10022000003000900198401C0190009818B9019886
:10023000B0F5A06FF1D16248006800F4003010B151
:100240000120009001E0002000900098012843D197
:100250005C48006840F010005A4908600846006891
:1002600020F0030008600846006840F002000860C3
:10027000534840685249486008464068486008460C
:10028000406840F4806048600846406820F47C1074
:1002900048600846406840F4E81048600846006836
:1002A00040F08070086000BF4548006800F00070B2
:1002B0000028F9D04248406820F0030040494860D7
:1002C0000846406840F00200486000BF3C48406873
:1002D00000F00C000828F9D10CBD10B5FFF792FF13
:1002E00010BD10B53648006840F001003449086080
:1002F000084640683449084031494860084600686B
:10030000324908402E4908600846006820F48020E1
:1003100008600846406820F4FE0048604FF41F0063
:100320008860FFF7DAFF4FF000602949086010BDD0
:1003300010B5002100200022214B5B6803F00C0166
:1003400021B1042906D0082928D107E0214B224CED
:10035000236027E01F4B204C236023E0184B5B6891
:1003600003F47010164B5B6803F48032022303EB36
:10037000904022B9194B4343174C23600DE0104BBA
:100380005B6803F4003323B1144B4343124C2360E6
:1003900003E0104B4343104C236003E00D4B0E4C25
:1003A000236000BF00BF064B5B68C3F303130C4C14
:1003B000E15C094B1B68CB40074C236010BD00007B
:1003C00000100240002002400000FFF8FFFFF6FE90
:1003D00008ED00E000127A000000002000093D0056
:1003E0000400002008B50121102000F051FE41F664
:1003F000FF40ADF8000010208DF8030003208DF8B9
:10040000020069464E4800F087FB08BD10B5FF2189
:100410004B4800F037FC4FF48061494800F02BFC5A
:100420004FF40061464800F024FC00BF4FF48051B7
:10043000434800F01EFC052000F084F8802140486D
:1004400000F0FDFB04464FF480513D4800F013FCE2
:1004500004F080000028E9D110BD70B504460025E5
:100460002546012000F06EF84FF48061344800F01A
:1004700002FC4FF40061324800F0FDFBA9B23048A5
:1004800000F000FC4FF480512D4800F0F2FB4FF4D7
:1004900080512B4800F0EFFB70BD70B5044600257D
:1004A00044F48065012000F04DF84FF48061244849
:1004B00000F0DFFB4FF40061214800F0DCFBA9B243
:1004C0001F4800F0DFFB4FF480511D4800F0D1FBC6
:1004D0004FF480511A4800F0CEFB70BD10B50120DA
:1004E000FFF7BBFF10BD70B504460E460EB9E5B26E
:1004F00002E004F14000C5B245F08000FFF7ADFF17
:1005000070BD70B505460E46144631462846FFF7C5
:10051000EAFF03E014F8010BFFF7BFFF2078002883
:10052000F8D170BD10B53820FFF797FF0C20FFF70A
:1005300094FF0620FFF791FF0120FFF78EFF10BD0B
:10054000001001400349086000BF02490968002902
:10055000FBD170471400002070B5044600F01EF96E
:10056000A02000F0B5F900F055F9204600F0B0F9F0
:1005700000F050F900F012F9A12000F0A9F900F004
:1005800049F900F0D1F9054600F044F900F024F9EA
:10059000284670BD70B505460C4600F0FFF8A02057
:1005A00000F096F900F036F9284600F091F900F0D5
:1005B00031F9204600F08CF900F02CF900F00CF92C
:1005C00070BD86B0454800684FF47A72B0FBF2F116
:1005D000B1F1807F00D31DE021F07F40401E4FF03D
:1005E000E022506150170F22002807DA13071E0E71
:1005F0003B4B00F00F052D1F5E5503E013071D0E4A
:10060000384B1D5400BF00204FF0E02290610720BE
:10061000106100BFFFF7E6FEFFF784FF32A2002162
:100620000846FFF76EFF00F0ABF9FF20FFF794FFDD
:1006300004460220FFF786FF23462FA232A101A81D
:1006400000F08AFD01AA02210020FFF75AFF32E0E4
:100650004FF400412E4800F0F2FA60BB0220FFF791
:1006600071FF4FF400412A4800F0E9FA18BB601C02
:10067000C0B204460146FF20FFF78CFF0220FFF7BF
:1006800061FFFF20FFF768FF04460220FFF75AFFD3
:10069000234619A21CA101A800F05EFD01AA0221B7
:1006A0000020FFF72EFF00BF4FF40041184800F074
:1006B000C6FA0028F8D0CBE708B50121082000F0E1
:1006C000E7FC4FF40040ADF8000048208DF803002F
:1006D00069460F4800F020FA08BD00000000002025
:1006E00018ED00E000E400E02020415432344330B3
:1006F0003220522F57000000414444523A3078468D
:10070000462C56414C3A0000257325640000000039
:10071000000C014008B58020ADF8000002208DF8E3
:10072000020028208DF803006946BA4800F0F4F969
:1007300008BD08B58020ADF8000002208DF8020049
:1007400010208DF803006946B24800F0E5F908BDB5
:1007500010B5044624B18021AE4800F08AFA03E0C7
:100760008021AC4800F087FA10BD10B5044624B1D2
:100770004021A84800F07DFA03E04021A54800F0A0
:100780007AFA10BD10B58021A24800F058FA10BDC9
:10079000002100E0491C8142FCD3704710B50120C4
:1007A000FFF7D6FF4FF4FA70FFF7F2FF0120FFF7D3
:1007B000DCFF4FF4FA70FFF7EBFF0020FFF7C8FFF4
:1007C0004FF4FA70FFF7E4FF0020FFF7CEFF4FF47D
:1007D000FA70FFF7DDFF10BD10B50020FFF7C5FF71
:1007E0004FF4FA70FFF7D4FF0020FFF7B1FF4FF48A
:1007F000FA70FFF7CDFF0120FFF7B7FF4FF4FA7053
:10080000FFF7C6FF0120FFF7A3FF4FF4FA70FFF7D1
:10081000BFFF10BD10B50524FFF77CFF4FF4FA7041
:10082000FFF7B6FF0120FFF7A0FF4FF4FA70FFF7C4
:10083000AFFF0CE0601E84B24FF4FA70FFF7A8FF20
:100840002CB9FFF776FFFFF7C7FF002010BDFFF7B9
:1008500099FF0028EED1FFF76CFF0020FFF785FF1E
:100860004FF4FA70FFF794FF0120EFE710B5002076
:10087000FFF76EFF4FF4FA70FFF78AFF4FF4FA703C
:10088000FFF786FF0120FFF770FF4FF4FA70FFF7C4
:100890007FFF0020FFF769FF4FF4FA70FFF778FF42
:1008A00010BD10B50120FFF753FF4FF4FA70FFF7AA
:1008B0006FFF0120FFF759FF4FF4FA70FFF768FF51
:1008C0000020FFF752FF4FF4FA70FFF761FF10BDF1
:1008D00070B5044608251BE00020FFF746FF4FF4E3
:1008E000FA70FFF755FF04F08000FFF731FF4FF477
:1008F000FA70FFF74DFF6006040E4FF4FA70FFF731
:1009000047FF0120FFF731FF4FF4FA70FFF740FF78
:10091000281EA5F10101CDB2DED1FFF726FF4FF46D
:10092000FA70FFF735FF70BD70B508250024FFF79A
:10093000F1FE16E06006040E0020FFF716FF4FF4EC
:10094000FA70FFF725FF4FF4FA70FFF721FF01203F
:10095000FFF70BFF4FF4FA70FFF71AFFFFF712FFD4
:100960000443281EA5F10101CDB2E3D1FFF7FDFE3E
:100970004FF4FA70FFF70CFFFFF7DBFE204670BD67
:1009800008B50121082000F083FBC020ADF800006D
:1009900002208DF8020010208DF8030069461D48E2
:1009A00000F0BAF808BD70B504460025FFF7F6FE62
:1009B000A020FFF78DFFFFF72DFFE0B2FFF788FFC4
:1009C000FFF728FFFFF7EAFEA120FFF781FFFFF7FF
:1009D00021FFFFF7A9FF0546FFF71CFFFFF7FCFE0D
:1009E000284670BD70B504460D46FFF7D7FEA0201F
:1009F000FFF76EFFFFF70EFFE0B2FFF769FFFFF7AB
:100A000009FFE8B2FFF764FFFFF704FFFFF7E4FE1A
:100A100070BD0000000C01400948804709480047AC
:100A2000FEE7FEE7FEE7FEE7FEE7FEE7FEE7FEE79E
:100A3000FEE7FEE704480549054A064B70470000FB
:100A4000E302000831010008900000209006002019
:100A5000900200209002002010B50446CC48844249
:100A600008D10121042000F02DFB0021042000F01A
:100A700029FB46E0C748844208D10121082000F044
:100A800021FB0021082000F01DFB3AE0C24884420F
:100A900008D10121102000F015FB0021102000F0EA
:100AA00011FB2EE0BD48844208D10121202000F036
:100AB00009FB0021202000F005FB22E0B848844219
:100AC00008D10121402000F0FDFA0021402000F073
:100AD000F9FA16E0B348844208D10121802000F0E1
:100AE000F1FA0021802000F0EDFA0AE0AE488442DD
:100AF00007D10121801500F0E5FA0021A01500F0D2
:100B0000E1FA10BD10B50121084600F0DBFA002122
:100B1000012000F0D7FA10BD2DE9F0410246002572
:100B20000026002000230024002791F803C00CF0C9
:100B30000F0591F803C00CF0100CBCF1000F03D0AE
:100B400091F802C04CEA050591F800C0BCF1000F15
:100B500031D0146800202BE04FF0010C0CFA00F3A8
:100B6000B1F800C00CEA03069E4220D183004FF08A
:100B70000F0C0CFA03F7BC4305FA03FC4CEA04041F
:100B800091F803C0BCF1280F06D14FF0010C0CFA0C
:100B900000FCC2F814C00AE091F803C0BCF1480F91
:100BA00005D14FF0010C0CFA00FCC2F810C0401C3B
:100BB0000828D1D31460B1F800C0BCF1FF0F34DDB8
:100BC000546800202EE000F1080C4FF0010808FAEC
:100BD0000CF3B1F800C00CEA03069E4221D1830059
:100BE0004FF00F0C0CFA03F7BC4305FA03FC4CEA78
:100BF000040491F803C0BCF1280F05D100F1080CE2
:100C000008FA0CF8C2F8148091F803C0BCF1480F40
:100C100007D100F1080C4FF0010808FA0CF8C2F8EF
:100C20001080401C0828CED35460BDE8F0814FF6F8
:100C3000FF710180022181700421C170704702465A
:100C4000002093680B400BB1012000E000207047AA
:100C50000146886880B2704702460020D3680B4086
:100C60000BB1012000E0002070470146C86880B247
:100C7000704701617047416170470AB1016100E04E
:100C800041617047C16070474FF480320A4382610E
:100C90008161826182698269704702460020434B0C
:100CA00018684FF68073184040EA021008433F4B23
:100CB000186070473E49C8617047F0B50A46002386
:100CC00000240021002500F00046B6F1004F02D1BB
:100CD000364EF16901E0354E7168C0F3034583B2C9
:100CE00000F44016B6F5401F08D121F070612F4E78
:100CF000766826F070662D4F7E6012E000F4801654
:100D0000B6F5801F06D1032606FA05F4A14341F08B
:100D1000706106E0460D360103FA06F6B14341F074
:100D2000706122B1460D360103FA06F6314300F038
:100D30000046B6F1004F02D11C4EF16101E01B4E9E
:100D40007160F0BD30B500228B071C0F0F2303FA32
:100D500004F2164B08338C1053F824309343134C91
:100D600008348D1044F8253023468C1053F8243075
:100D70008C07240F00FA04F423430C4C08348D1024
:100D800044F8253030BD0A49DC3108607047000066
:100D900000080140000C0140001001400014014017
:100DA00000180140001C01400020014000000140EB
:100DB00000002042DF48006840F00100DD49086083
:100DC00008464068DC490840DA494860084600683F
:100DD000DA490840D74908600846006820F48020B6
:100DE00008600846406820F4FE0048604FF41F0089
:100DF00088607047CF49096821F48031CD4A11607D
:100E00001146096821F480211160B0F5803F03D0BC
:100E1000B0F5802F0ED106E0C649096841F4803153
:100E2000C44A116007E0C349096841F4A021C14ADE
:100E3000116000E000BF00BF704710B501460022FE
:100E4000002300204A11012A02D1BA4C236806E08F
:100E5000022A02D1B74C236A01E0B64C636A01F062
:100E60001F02012494401C400CB1012000E000202E
:100E700010BD38B5002000900024002500BF3120AF
:100E8000FFF7DBFF05460098401C00900098B0F586
:100E9000A06F01D0002DF2D03120FFF7CEFF08B1B6
:100EA000012400E00024204638BD01460020A14A6C
:100EB000106820F0F80040EAC10010607047A049B7
:100EC00008607047024600209A4B586820F47C1056
:100ED00042EA01031843974B5860704798490866E7
:100EE000704701460020934A506820F003000843F1
:100EF000506070478F48406800F00C007047014612
:100F000000208C4A506820F0F00008435060704781
:100F100001460020874A506820F4E0600843506092
:100F2000704701460020834A506820F4605040EA30
:100F3000C1005060704729B17E4A527A02437D4B0E
:100F40005A7204E07B4A527A82437A4B5A72704753
:100F50007B49D8310860704701460020754A5068C7
:100F600020F440400843506070470021714A20320D
:100F70001170704A82F82010012802D004280AD18A
:100F800004E001216B4A2032117005E00521694A15
:100F90002032117000E000BF00BF7047694908604F
:100FA00070476449096A0143624A116270476549A2
:100FB00044390860704730B5002100220024002326
:100FC0005C4D6D6805F00C0121B1042905D008299C
:100FD00023D105E05C4D056022E05B4D05601FE01C
:100FE000544D6D6805F47012524D6D6805F48034EF
:100FF000022505EB92421CB9544D554305600BE0A8
:101000004C4D6D6805F400351DB1504D55430560DC
:1010100002E04D4D5543056002E04B4D056000BFB9
:1010200000BF444D6D6805F0F0010909484D6B5C47
:101030000568DD4045603F4D6D6805F4E061090AD3
:10104000434D6B5C4568DD4085603A4D6D6805F445
:101050006051C90A3E4D6B5C4568DD40C560354D49
:101060006D6805F44041890B3A4D6B5CC568B5FB72
:10107000F3F5056130BD29B12E4A526902432D4B6B
:101080005A6104E02B4A526982432A4B5A617047E5
:1010900029B1284A92690243264B9A6104E0254A05
:1010A00092698243234B9A61704729B1214AD269E0
:1010B0000243204BDA6104E01E4AD26982431D4B91
:1010C000DA61704729B11B4AD2680243194BDA60D2
:1010D00004E0184AD2688243164BDA60704729B19F
:1010E000144A12690243134B1A6104E0114A12694F
:1010F0008243104B1A6170471249403908607047AB
:101100000F49C86470470B49C87170470948406A65
:1011100040F0807007494862704701460020054A48
:1011200092680A400AB1012000E00020704701499E
:1011300088727047001002400000FFF8FFFFF6FEC3
:10114000000042428004424200127A0000093D0041
:1011500018000020280000200FB41CB5074B06AA79
:101160007B4469460090059800F005F90020694627
:1011700000F014F91CBC5DF814FB000039020000FB
:101180002DE9F0410E460446002020622046E16829
:10119000884730B3252805D0D4E901219047206A3B
:1011A000401CF2E7E168204600278847050018D078
:1011B000A5F14100192802D820354FF400673246C6
:1011C000294620462760FEF7EDFF40B1012804D0F4
:1011D000F61D26F007060836D8E7361DD6E728465E
:1011E000DAE7206ABDE8F08170B50C460546012AB1
:1011F00005D02878800600D5EA69002302E00123A3
:1012000005E05B1C934202D2E05C0028F9D1A8699A
:10121000E618C01AA861286A184428622846AFF365
:10122000008004E0D5E9012114F8010B9047B44295
:10123000F8D32846AFF3008070BD00002DE9F041DF
:101240000646002410687529314616A510D0AFF364
:101250000080002802DA404213A507E031688A07BF
:1012600001D512A502E0490704D511A5012401E02A
:10127000AFF3008000210A2206F1240709E0B0FB49
:10128000F2FCB0FBF2F302FB1C003030785418463D
:10129000491C0028F3D123462A463046BDE8F041D8
:1012A00000F00BB8000000002D0000002B00000033
:1012B000200000007047704770472DE9F0470D4649
:1012C00099469246044600F124080168880604D530
:1012D000E06921F01001216000E00120A84201DD59
:1012E000471B00E00027A1697A1902EB0900081AE0
:1012F000A0612078C00602D42046AFF3008000260B
:1013000008E0D4E901211AF806009047206A401C41
:10131000761C20624E45F4DB2078C0060AD52046B4
:10132000AFF3008006E0D4E9012130209047206A25
:10133000401C2062381EA7F10107F4DC07E0D4E965
:10134000012118F805009047206A401C2062281EE1
:10135000A5F10105F3DC2046AFF3008020780006FC
:1013600002D50220BDE8F0870120FBE701694A1C95
:1013700002610878704700B58FB0CDE901310021D6
:10138000059105497944CDE9031011466846FFF7F8
:10139000F7FE0FB000BD0000E5FFFFFF0A6802F88E
:1013A000010B0A60704710B5436913B1AFF30080B9
:1013B00001E0FFF719FF012010BD127800F12401B0
:1013C0000A7000224A700122EDE711684FF0FF32E7
:1013D000E9E7754600F02CF8AE460500694653462D
:1013E00020F00700854618B020B5FFF723FBBDE8C5
:1013F00020404FF000064FF000074FF000084FF07C
:10140000000B21F00701AC46ACE8C009ACE8C0090C
:10141000ACE8C009ACE8C0098D46704710B5044679
:10142000AFF300802046BDE81040FEF7D0BE0000BC
:10143000004870472C00002001491820ABBEFEE791
:101440002600020070470000681400080000002019
:101450002C0000006C010008941400082C000020EF
:10146000640600008801000800A24A040000000091
:101470000000000001020304060708090000000044
:10148000000000000102030401020304060708092A
:041490000204060844
:0400000508000131BD
:00000001FF
