:020000040800F2
:10000000B006002011090008D5010008D70100083A
:10001000DB010008DF010008E30100080000000028
:10002000000000000000000000000000E9010008DE
:10003000E701000800000000EB010008ED010008E6
:100040002B0900082B0900082B090008F9010008FA
:100050002B0900082B0900082B0900082B090008B0
:100060002B0900082B0900082B0900082B090008A0
:100070002B0900082B0900082B0900082B09000890
:100080002B0900082B0900082B0900082B09000880
:100090002B0900082B0900082B0900082B09000870
:1000A0002B0900082B0900082B0900082B09000860
:1000B0002B0900082B0900082B0900082B09000850
:1000C0002B0900082B0900082B0900082B09000840
:1000D0002B0900082B0900082B0900082B09000830
:1000E0002B0900082B0900082B0900082B09000820
:1000F0002B0900082B0900082B0900082B09000810
:100100002B0900082B0900082B0900082B090008FF
:100110002B0900082B0900082B0900082B090008EF
:100120002B0900082B0900082B0900082B090008DF
:1001300000F002F800F03FF80AA090E8000C8244BA
:100140008344AAF10107DA4501D100F034F8AFF297
:10015000090EBAE80F0013F0010F18BFFB1A43F0A5
:10016000010318470016000020160000103A24BFB3
:1001700078C878C1FAD8520724BF30C830C144BF0C
:1001800004680C607047000000230024002500264E
:10019000103A28BF78C1FBD8520728BF30C148BFEA
:1001A0000B607047642901F04181002070471FB542
:1001B0001FBD10B510BD01F08AFA1146FFF7F7FF19
:1001C00000F02EFB01F0A8FA03B4FFF7F2FF03BC26
:1001D00001F0B0FA704700BFFEE700BFFEE700BFC6
:1001E000FEE700BFFEE77047704770475A48006857
:1001F000401E59490860704710B5012001F0E8F829
:10020000002874D0012001F0F3F801205349086060
:1002100001F0B0F801F072F85149884204D1002091
:1002200001F075F801F0A6F801F068F84FF461618B
:10023000B0FBF1F201FB120008B9012400E0002438
:1002400001F05CF84FF46161B0FBF1F201FB1200C8
:10025000022801D1012000E00020044301F04EF803
:100260004FF46161B0FBF1F201FB1200042801D1EF
:10027000012000E00020044301F040F84FF46161E8
:10028000B0FBF1F201FB1200062801D1012000E0D1
:100290000020044301F032F84FF46161B0FBF1F249
:1002A00001FB1200082801D1012000E000200443D6
:1002B00024B14FF400712B4800F029FD01F01EF825
:1002C0004FF46161B0FBF1F201FB1200012801D192
:1002D000012400E0002401F011F84FF46161B0FB4B
:1002E000F1F201FB1200032802D1012001E031E00C
:1002F0000020044301F002F84FF46161B0FBF1F219
:1003000001FB1200052801D1012000E00020044378
:1003100000F0F4FF4FF46161B0FBF1F201FB120059
:10032000072801D1012000E00020044300F0E6FF8F
:100330004FF46161B0FBF1F201FB1200092801D119
:10034000012000E00020044324B14FF4007105486F
:1003500000F0DBFC10BD0000140000202400002091
:1003600080510100000C01400CB50020019000906C
:100370006C48006840F480306A49086000BF6948F2
:10038000006800F4003000900198401C0190009833
:1003900018B90198B0F5A06FF1D16248006800F477
:1003A000003010B10120009001E000200090009882
:1003B000012843D15C48006840F010005A490860A9
:1003C0000846006820F0030008600846006840F016
:1003D0000200086053484068524948600846406837
:1003E00048600846406840F48060486008464068BD
:1003F00020F47C1048600846406840F4E8104860EB
:100400000846006840F08070086000BF45480068FA
:1004100000F000700028F9D04248406820F0030046
:10042000404948600846406840F00200486000BF0C
:100430003C48406800F00C000828F9D10CBD10B50C
:10044000FFF792FF10BD10B53648006840F001007C
:1004500034490860084640683449084031494860DA
:1004600008460068324908402E490860084600687E
:1004700020F4802008600846406820F4FE004860B0
:100480004FF41F008860FFF7DAFF4FF00060294942
:10049000086010BD10B5002100200022214B5B68D0
:1004A00003F00C0121B1042906D0082928D107E066
:1004B000214B224C236027E01F4B204C236023E07C
:1004C000184B5B6803F47010164B5B6803F48032C2
:1004D000022303EB904022B9194B4343174C23608E
:1004E0000DE0104B5B6803F4003323B1144B43431E
:1004F000124C236003E0104B4343104C236003E095
:100500000D4B0E4C236000BF00BF064B5B68C3F36E
:1005100003130C4CE15C094B1B68CB40074C236078
:1005200010BD000000100240002002400000FFF853
:10053000FFFFF6FE08ED00E000127A000000002048
:1005400000093D000400002008B50121102000F042
:1005500051FE41F6FF40ADF8000010208DF8030079
:1005600003208DF8020069464E4800F021FB08BDCB
:1005700010B5FF214B4800F0D1FB4FF48061494892
:1005800000F0C5FB4FF40061464800F0BEFB00BF21
:100590004FF48051434800F0B8FB052000F0A9F863
:1005A0008021404800F097FB04464FF480513D48BD
:1005B00000F0ADFB04F080000028E9D110BD70B55B
:1005C000044600252546012000F093F84FF4806191
:1005D000344800F09CFB4FF40061324800F097FB78
:1005E000A9B2304800F09AFB4FF480512D4800F03A
:1005F0008CFB4FF480512B4800F089FB70BD70B527
:100600000446002544F48065012000F072F84FF4A0
:100610008061244800F079FB4FF40061214800F02C
:1006200076FBA9B21F4800F079FB4FF480511D48BA
:1006300000F06BFB4FF480511A4800F068FB70BD6E
:1006400010B50120FFF7BBFF10BD70B504460E4684
:100650000EB9E5B202E004F14000C5B245F08000F9
:10066000FFF7ADFF70BD70B505460E461446314626
:100670002846FFF7EAFF03E014F8010BFFF7BFFF7E
:1006800020780028F8D170BD10B53820FFF797FF0B
:100690000C20FFF794FF0620FFF791FF0120FFF7E2
:1006A0008EFF10BD0010014030B50146481EB0F16C
:1006B000807F01D3012030BD481E4FF0E022506101
:1006C00050170122002807DA13071D0E0D4B00F00A
:1006D0000F04241F1D5503E013071C0E0A4B1C5466
:1006E00000BF00204FF0E022906107201061002041
:1006F000E1E70649086000BF044909680029FBD109
:100700007047000018ED00E000E400E01400002055
:1007100038B504464FF46160B4FBF0F06A490860F4
:100720004FF46160B4FBF0F100FB11403C21B0FBE1
:10073000F1F0664908604FF46160B4FBF0F100FB32
:1007400011403C21B0FBF1F201FB1200604908604E
:100750000846006800905D4803685B485DA1026838
:10076000624800F04FFE614A02210020FFF77BFF44
:1007700038BD08B54FF4A06000F0EAF803208DF80A
:10078000000001208DF8010000208DF802000120FA
:100790008DF80300684600F0E0F808BD10B50121AF
:1007A0004FF0C05000F033FD012000F05AFB00F084
:1007B0003DF9012000F0A4FC00BF612000F0EFFB38
:1007C0000028FAD04FF4007000F09DFC012000F0EA
:1007D000A0FC00F0D8FD00F0CDFD0121084600F09E
:1007E0006DFD00F0C7FD49F63F4000F09DFD00F0B3
:1007F000C1FD49F6AB2000F08AFD00F0BBFD10BD45
:1008000008B54FF40070ADF8000003208DF8020029
:1008100010208DF803006946354800F0C9F908BD7D
:10082000344800684FF47A71B0FBF1F42046FFF7CA
:100830003BFFFFF789FEFFF727FF2FA200210846A5
:10084000FFF711FF0121092000F0D4FCFFF7D8FFCA
:100850004FF40071264800F058FAFFF79FFFFFF7AA
:1008600088FF30E02948006801282CD100F046FDBF
:100870000446FFF74DFF0020244908601348006834
:1008800038B91348006820B94FF40071184800F0D7
:100890003EFA0F4800680A2810D20D48007800F090
:1008A000010028B14FF40071114800F02EFA0AE05F
:1008B0004FF400710E4800F02AFA04E04FF4007182
:1008C0000B4800F022FACDE7180000201C000020A1
:1008D0002000002054696D653A2025302E32643A9C
:1008E00025302E32643A25302E3264003C00002040
:1008F000000C0140000000205254435F43616C65CE
:100900006E64725F54657374000000002400002060
:100910000948804709480047FEE7FEE7FEE7FEE793
:10092000FEE7FEE7FEE7FEE7FEE7FEE704480549CF
:10093000054A064B704700004704000831010008D3
:10094000B0000020B0060020B0020020B00200205D
:1009500031490143314A1160704770B500210023CD
:100960000F22C47804B32D4C246804F4E064C4F569
:10097000E064210AC1F10403CA40447804FA03F197
:100980008478144021430901254C0678A155047848
:1009900004F01F050124AC4005786D11AD0005F190
:1009A000E025C5F8004109E0047804F01F050124A2
:1009B000AC401C4D0678761145F8264070BD1A4AA9
:1009C0000A400243154B1B1F1A60704739B1134A86
:1009D000121D12680243114B1B1D1A6006E00F4ADC
:1009E000121D126882430D4B1B1D1A6070470428AC
:1009F00008D14FF0E021096941F004014FF0E022F5
:100A0000116107E04FF0E021096921F004014FF086
:100A1000E0221161704700000000FA050CED00E0D3
:100A200000E400E080E100E080FFFF1F10B501203E
:100A300000F014FC002000F011FC10BD2A490860F1
:100A400070472949091F08607047274984310860A9
:100A5000704701460020254A10884FF67F4210401B
:100A60000843224A10807047014600201F4A108820
:100A70004FF68072104008431C4A1080704708B53A
:100A800000220092194A2C3A0092009A02440092E5
:100A9000009A116008BD08B5014600200090134877
:100AA0002C3800900098084400900098008808BDF9
:100AB0000D489C300068C0B270470C480830008870
:100AC00040F0010009490831088070470648A0300D
:100AD0000068C0B2704705480830008840F0020046
:100AE000024908310880704704860D422C6C004092
:100AF00010B50446CC48844208D10121042000F0FE
:100B000093FB0021042000F08FFB46E0C74884429D
:100B100008D10121082000F087FB0021082000F007
:100B200083FB3AE0C248844208D10121102000F042
:100B30007BFB0021102000F077FB2EE0BD488442B3
:100B400008D10121202000F06FFB0021202000F0BF
:100B50006BFB22E0B848844208D10121402000F01C
:100B600063FB0021402000F05FFB16E0B3488442A5
:100B700008D10121802000F057FB0021802000F0E7
:100B800053FB0AE0AE48844207D10121801500F0F2
:100B90004BFB0021A01500F047FB10BD10B5012153
:100BA000084600F041FB0021012000F03DFB10BD94
:100BB0002DE9F041024600250026002000230024F4
:100BC000002791F803C00CF00F0591F803C00CF05A
:100BD000100CBCF1000F03D091F802C04CEA0505DF
:100BE00091F800C0BCF1000F31D0146800202BE058
:100BF0004FF0010C0CFA00F3B1F800C00CEA030648
:100C00009E4220D183004FF00F0C0CFA03F7BC4337
:100C100005FA03FC4CEA040491F803C0BCF1280F68
:100C200006D14FF0010C0CFA00FCC2F814C00AE027
:100C300091F803C0BCF1480F05D14FF0010C0CFA3C
:100C400000FCC2F810C0401C0828D1D31460B1F8D1
:100C500000C0BCF1FF0F34DD546800202EE000F12D
:100C6000080C4FF0010808FA0CF3B1F800C00CEAC8
:100C700003069E4221D183004FF00F0C0CFA03F7BC
:100C8000BC4305FA03FC4CEA040491F803C0BCF130
:100C9000280F05D100F1080C08FA0CF8C2F81480EE
:100CA00091F803C0BCF1480F07D100F1080C4FF0D8
:100CB000010808FA0CF8C2F81080401C0828CED3AE
:100CC0005460BDE8F0814FF6FF7101800221817010
:100CD0000421C17070470246002093680B400BB19D
:100CE000012000E0002070470146886880B270470C
:100CF00002460020D3680B400BB1012000E0002029
:100D000070470146C86880B2704701617047416111
:100D100070470AB1016100E041617047C1607047EE
:100D20004FF480320A438261816182618269826903
:100D3000704702460020434B18684FF680731840F6
:100D400040EA021008433F4B186070473E49C861B3
:100D50007047F0B50A46002300240021002500F06A
:100D60000046B6F1004F02D1364EF16901E0354E32
:100D70007168C0F3034583B200F44016B6F5401F16
:100D800008D121F070612F4E766826F070662D4FE5
:100D90007E6012E000F48016B6F5801F06D10326AF
:100DA00006FA05F4A14341F0706106E0460D3601F4
:100DB00003FA06F6B14341F0706122B1460D3601E7
:100DC00003FA06F6314300F00046B6F1004F02D1B7
:100DD0001C4EF16101E01B4E7160F0BD30B5002288
:100DE0008B071C0F0F2303FA04F2164B08338C10E9
:100DF00053F824309343134C08348D1044F82530B5
:100E000023468C1053F824308C07240F00FA04F486
:100E100023430C4C08348D1044F8253030BD0A496A
:100E2000DC3108607047000000080140000C014000
:100E3000001001400014014000180140001C014056
:100E400000200140000001400000204210B50121B7
:100E5000080700F0F6F900214FF0805000F0F1F99A
:100E600010BD2A4908627047284908617047014649
:100E70000020274A106820F0E00008431060704707
:100E80002249A0310860704710B502460020204B6F
:100E9000186820F00300104318601E4B1B6843F0D5
:100EA00004031C4C2360012901D130BF00E020BFA6
:100EB000184B1B6823F00403164C236010BD144824
:100EC000006840F00400124908600846006840F0DD
:100ED000020008600F48006840F004000D490860F7
:100EE00000BF00BF30BF704701460020084A52686B
:100EF0000A400AB1012000E0002070470449096857
:100F000041EA8001024A11607047000000000E4271
:100F10000070004010ED00E0DF48006840F0010084
:100F2000DD49086008464068DC490840DA49486005
:100F300008460068DA490840D74908600846006852
:100F400020F4802008600846406820F4FE004860D5
:100F50004FF41F0088607047CF49096821F4803141
:100F6000CD4A11601146096821F480211160B0F565
:100F7000803F03D0B0F5802F0ED106E0C649096846
:100F800041F48031C44A116007E0C349096841F463
:100F9000A021C14A116000E000BF00BF704710B53A
:100FA00001460022002300204A11012A02D1BA4C36
:100FB000236806E0022A02D1B74C236A01E0B64C4E
:100FC000636A01F01F02012494401C400CB101200F
:100FD00000E0002010BD38B500200090002400255E
:100FE00000BF3120FFF7DBFF05460098401C009052
:100FF0000098B0F5A06F01D0002DF2D03120FFF79E
:10100000CEFF08B1012400E00024204638BD01468F
:101010000020A14A106820F0F80040EAC1001060EA
:101020007047A04908607047024600209A4B5868F4
:1010300020F47C1042EA01031843974B5860704734
:1010400098490866704701460020934A506820F08E
:1010500003000843506070478F48406800F00C0060
:101060007047014600208C4A506820F0F000084389
:101070005060704701460020874A506820F4E060C5
:1010800008435060704701460020834A506820F4AE
:10109000605040EAC1005060704729B17E4A527AE0
:1010A00002437D4B5A7204E07B4A527A82437A4B68
:1010B0005A7270477B49D83108607047014600205A
:1010C000754A506820F44040084350607047002142
:1010D000714A20321170704A82F82010012802D023
:1010E00004280AD104E001216B4A2032117005E086
:1010F0000521694A2032117000E000BF00BF70472F
:101100006949086070476449096A0143624A11628B
:101110007047654944390860704730B500210022A6
:10112000002400235C4D6D6805F00C0121B10429F9
:1011300005D0082923D105E05C4D056022E05B4D18
:1011400005601FE0544D6D6805F47012524D6D68D6
:1011500005F48034022505EB92421CB9544D5543E9
:1011600005600BE04C4D6D6805F400351DB1504D28
:101170005543056002E04D4D5543056002E04B4D7F
:10118000056000BF00BF444D6D6805F0F00109091E
:10119000484D6B5C0568DD4045603F4D6D6805F46A
:1011A000E061090A434D6B5C4568DD4085603A4D5E
:1011B0006D6805F46051C90A3E4D6B5C4568DD40C1
:1011C000C560354D6D6805F44041890B3A4D6B5C47
:1011D000C568B5FBF3F5056130BD29B12E4A5269EA
:1011E00002432D4B5A6104E02B4A526982432A4B39
:1011F0005A61704729B1284A92690243264B9A6185
:1012000004E0254A92698243234B9A61704729B1D1
:10121000214AD2690243204BDA6104E01E4AD269B6
:1012200082431D4BDA61704729B11B4AD2680243E1
:10123000194BDA6004E0184AD2688243164BDA6030
:10124000704729B1144A12690243134B1A6104E032
:10125000114A12698243104B1A6170471249403992
:10126000086070470F49C86470470B49C8717047E0
:101270000948406A40F0807007494862704701465B
:101280000020054A92680A400AB1012000E00020CF
:101290007047014988727047001002400000FFF853
:1012A000FFFFF6FE000042428004424200127A0034
:1012B00000093D00280000203800002029B1504AD4
:1012C000128802434E4B1A8004E04D4A1288824332
:1012D0004B4B1A8070474A48001D008840F01000B0
:1012E0004749091D088070474548001D00884FF692
:1012F000EF7108404249091D0880704700214048AD
:101300001C300188001F008841EA0040704700B58A
:101310000246FFF7E0FF100C394918310880091D1B
:101320000A80FFF7E1FF00BD00B50246FFF7D3FFDB
:10133000C2F30340324908310880091D0A80FFF7D3
:10134000D3FF00BD00B50246FFF7C5FF100C2C49C6
:1013500020310880091D0A80FFF7C6FF00BD00206C
:101360002749103109880907080B254914310988D4
:101370000843704700BF2248001D008800F020008D
:101380000028F8D070471E48001D00884FF6F771FE
:1013900008401B49091D088000BF1948001D00882E
:1013A00000F008000028F8D0704701460020144AD9
:1013B000121D12880A400AB1012000E00020704787
:1013C0000F49091D098881430D4A121D118070477C
:1013D000014600200A4A121D12880A40D0B2084A6B
:1013E00012880A4012B108B1012000E000207047C5
:1013F0000349091D09888143014A121D1180704764
:10140000002800400FB41CB5074B06AA7B44694670
:101410000090059800F043F90020694600F052F969
:101420001CBC5DF814FB0000B50200002DE9F04182
:101430000646002410687529314616A510D0AFF372
:101440000080002802DA404213A507E031688A07CD
:1014500001D512A502E0490704D511A5012401E038
:10146000AFF3008000210A2206F1240709E0B0FB57
:10147000F2FCB0FBF2F302FB1C003030785418464B
:10148000491C0028F3D123462A463046BDE8F041E6
:1014900000F0A7B8000000002D0000002B000000A5
:1014A000200000002DE9F05F894604464FF0000A55
:1014B000DFF824B1FB44C0F820A02046E16888474B
:1014C00000287DD0252806D0D4E901219047206A44
:1014D000401C2062F1E700255F462046E16888470E
:1014E0002028064607DB312E05D2B81910F8200C4B
:1014F00008B10543F1E7A80701D525F00405C4F8B4
:101500001CA00027C4F818A02A2E09D0304600F0ED
:1015100018F938B304EB8708303EC8F8186019E0B2
:1015200059F8041B204604EB87029161E168884763
:10153000012F064618D1E069002820DA25F02005A1
:101540001DE0D8F8180000EB800006EB40003038B2
:10155000C8F818002046E1688847064600F0F1F810
:101560000028EED1012F0AD02E2E08D12046E168A6
:1015700088477F1C0646022F45F02005C4DBA06982
:10158000002803DA404245F00105A061E80701D0D8
:1015900025F01005A6B1A6F14100192802D8203681
:1015A00045F400654A463146204625604D46FEF723
:1015B000F9FD60B1012807D0ED1D25F0070000E01E
:1015C00007E000F1080978E705F1040975E73046FE
:1015D0007AE7206ABDE8F09F9802000070477047E4
:1015E00070472DE9F0470D4699469246044600F1B2
:1015F00024080168880604D5E06921F01001216003
:1016000000E00120A84201DD471B00E00027A1699E
:101610007A1902EB0900081AA0612078C00602D4EA
:101620002046AFF30080002608E0D4E901211AF833
:1016300006009047206A401C761C20624E45F4DB71
:101640002078C0060AD52046AFF3008006E0D4E932
:10165000012130209047206A401C2062381EA7F1EB
:101660000107F4DC07E0D4E9012118F805009047F0
:10167000206A401C2062281EA5F10105F3DC2046EB
:10168000AFF300802078000602D50220BDE8F08785
:101690000120FBE701694A1C02610878704700B528
:1016A0008FB0CDE901310021059105497944CDE99B
:1016B000031011466846FFF7F5FE0FB000BD0000AD
:1016C000E5FFFFFF0A6802F8010B0A6070477546E4
:1016D00000F02CF8AE4605006946534620F007009E
:1016E000854618B020B5FFF721F9BDE820404FF03E
:1016F00000064FF000074FF000084FF0000B21F0FC
:101700000701AC46ACE8C009ACE8C009ACE8C009C8
:10171000ACE8C0098D46704710B50446AFF30080B1
:101720002046BDE81040FEF74FBD0000004870475E
:101730005000002001491820ABBEFEE72600020041
:10174000704730380A2801D20120704700207047C6
:10175000040000080000000000000002000100007A
:101760001000000084170008000000203C0000006A
:101770006C010008C01700083C000020740600003F
:101780008801000800A24A040000000000000000D8
:101790000102030406070809000000000000000021
:1017A0000000000000000000000000000000000039
:1017B00001020304010203040607080902040608E3
:0400000508000131BD
:00000001FF
