:020000040800F2
:100000001004002005010008AB0A0008090A0008D6
:10001000A90A000871010008050B00080000000093
:10002000000000000000000000000000AF0A00080F
:100030007301000800000000AD0A0008B10A0008C2
:100040001F0100081F0100081F0100081F01000810
:100050001F0100081F0100081F0100081F01000800
:100060001F0100081F0100081F0100081F010008F0
:100070001F0100081F0100081F0100081F010008E0
:100080001F0100081F0100081F0100081F010008D0
:100090001F0100081F0100081F0100081F010008C0
:1000A0001F0100081F0100081F0100081F010008B0
:1000B0001F0100081F010008000000001F010008C8
:1000C0001F01000800000000000000001F010008E0
:1000D000000000001F0100081F01000800000000D0
:1000E000750100081F0100081F010008DFF810D08B
:1000F00000F02CF800480047450B0008AFF30080E3
:10010000100400200648804706480047FEE7FEE747
:10011000FEE7FEE7FEE7FEE7FEE7FEE7FEE7FEE7B7
:10012000030B0008ED000008D2B201E000F8012B3B
:10013000491EFBD270470022F6E710B513460A4667
:1001400004461946FFF7F0FF204610BD064C074D48
:1001500006E0E06840F0010394E807009847103497
:10016000AC42F6D3FFF7C6FF900B0008B00B0008B7
:10017000FEE770474FF4006000F03EB870B50446EB
:1001800000F030F90546601C02D0044800780444B1
:1001900000F028F9401BA042FAD370BD00000020F7
:1001A0002DE9F0414FF40064A0421ED11420FFF766
:1001B000E5FF21460E4800F00BF9002815D1012477
:1001C0000C4D00274FF47F462E602820FFF7D6FF06
:1001D0002F602820FFF7D2FF641C042CF4DB2E6074
:1001E000BDE8F0412820FFF7C9BFBDE8F08100005D
:1001F000000801400C0C0140044910B50A68024295
:1002000002D00860FFF7CCFF10BD000014040140CD
:100210002DE9F84FDFF89C91002409F1040A0AF156
:10022000040B23460F270BF1040EBBE00125A5406C
:100230002A40AA4276D1DFF880C14E68A6EB0C08AE
:1002400066452BD00DDC032E34D005DC36B3012EF1
:1002500019D0022E2FD11BE0112E16D0122E2AD12A
:1002600019E0B8F5881F19D006DCB8F5803F15D025
:10027000B8F5801F1FD111E0B8F5001F0ED0B8F5FA
:10028000041F18D10AE0CB6815E0CB681B1D12E0F3
:10029000CB6808330FE0CB680C330CE08B682BB1D4
:1002A000012B4FF0080303D0456104E0042302E072
:1002B000056100E00023FF2A01D8064601E000F1B5
:1002C00004064FEA840501D9A5F12005D6F800807F
:1002D00007FA05FC28EA0C0803FA05F548EA0508C0
:1002E000C6F800804D68ED005BD5344DAE6946F030
:1002F0000106AE61AD6924F0030605F00105009525
:100300002F4D06EB050CDCF80850A607360F07FA50
:1003100006F825EA0805DFF8AC80404503D14FF028
:10032000000810E03DE0DFF8A080404502D14FF02A
:10033000010808E0DFF89480404502D14FF0020840
:1003400001E04FF0030808FA06F848EA0508CCF87F
:1003500008804D68D9F80060ED034D4601D516437D
:1003600000E096432E604D68DAF80060AD03554614
:1003700001D5164300E096432E604D68DBF800601F
:10038000ED025D4601D5164300E096432E604D68B0
:10039000DEF80060AD02754601D5164300E09643D5
:1003A0002E60641C0A6832FA04F57FF43FAFBDE8A2
:1003B000F88F0000000401400000111000100240FE
:1003C0000000014000080140000C01400010014005
:1003D0008068084000D0012070470AB10161704771
:1003E0000904FBE701488068704700000000002016
:1003F0000248816802781144816070470000002043
:10040000074810B5016841F010010160032000F0B9
:1004100079F8002000F006F800F024F8002010BD64
:100420000020024070B50D4D04464FF47A712878D3
:10043000B1FBF0F00A490968B1FBF0F000F0D0FA26
:1004400048B9102C07D200222146501E00F03AF87D
:1004500000206C6070BD012070BD00000000002015
:100460000C0000200E4808B5816941F0010181614E
:10047000816901F001010091C16941F08051C161C0
:10048000C06900F080500090052000F03BF805485E
:10049000416821F0E06141F08061416008BD0000E9
:1004A0000010024000000140002809DB00F01F029C
:1004B000012191404009800000F1E020C0F80011C6
:1004C00070470000F0B40E4B1B680C46C3F30223C8
:1004D000C3F10705042D00D90425191D072901D2F0
:1004E000002300E0DB1E012606FA05F1491E21402B
:1004F00099409E40761E16403143F0BC00F003BB8D
:100500000CED00E0064900F0070208684FF6FF0313
:10051000184040EA0220034A104308607047000078
:100520000CED00E00000FA052DE9F0470F4605004C
:1005300061D0434E306800F00700B84209D23068FD
:1005400020F0070038433060306800F00700B84200
:1005500051D128683B4C810712D5400703D560680C
:1005600040F4E06060602878000703D5606840F4DC
:10057000605060606068A96820F0F0000843606027
:100580002878C00728D06868012810D02168022880
:1005900010D0890700292EDA616821F00301014398
:1005A0006160FFF71FFF804641F288390DE0216846
:1005B0008903EFE78901EDE7FFF714FFA0EB0801DE
:1005C000494502D90320BDE8F0876068696800F0FA
:1005D0000C00B0EB810FEFD1306800F00700B8429B
:1005E0000BD9306820F0070038433060306800F0E5
:1005F0000700B84201D00120E5E72878400705D57B
:100600006068E96820F4E0600843606028780007CB
:1006100006D56068296920F4605040EAC100606036
:1006200000F018F86168084AC1F30311515CC84032
:100630000649086006480068FFF7F4FE0020C2E79C
:100640000020024000100240800B00080C00002037
:100650000400002012A185B00FC98DE80F0014A07E
:10066000144A006804905168134801F00C03042BED
:1006700010D0082B0ED1C1F38343C9031DF803002A
:100680000AD5516804AAC1F34041515C0A4A50435B
:10069000B0FBF1F005B0704708494843FAE70000A5
:1006A00002030405060708090A0B0C0D0E0F1010B3
:1006B000010200000010024000127A0000093D0013
:1006C0002DE9F84F040070D02078C04DC00749D004
:1006D0006868C0F38100012807D06868C0F3810012
:1006E000022809D16868C00306D52868800339D577
:1006F00060680028E7D035E06068B0F5803F0BD037
:1007000010B1B0F5A02F11D0286820F480302860F7
:10071000286820F4802002E0286840F480302860B7
:10072000606890B1FFF75EFE06460AE0286840F474
:1007300080202860F0E700BFFFF754FE801B64288C
:1007400073D828688003F7D50CE0FFF74BFE064608
:1007500005E000BFFFF746FE801B6428F0D828683C
:100760008003F7D420789A4E80074FF001094FF0AC
:10077000000839D5686810F00C0F07D06868C0F31E
:100780008100022809D16868C00306D42868800760
:1007900014D52069012808D110E02069B0B1C6F84D
:1007A0000090FFF71FFE074605E00AE1FFF71AFE7B
:1007B000C01B0228C4D828688007F7D5286861695B
:1007C00020F0F80040EAC10028600DE0C6F8008083
:1007D000FFF708FE074604E0FFF704FEC01B0228EF
:1007E00023D828688007F7D4207800072CD57948CB
:1007F000A169D9B1C0F80090FFF7F4FD074604E005
:10080000FFF7F0FDC01B02280FD8686A8007F7D5F4
:1008100071484FF4FA510068B0FBF1F0009000BF4E
:100820000098411E0091FAD20EE080E0C0F80080EE
:10083000FFF7D8FD074604E0FFF7D4FDC01B0228F0
:1008400075D8686A8007F7D42078400760D5E869D2
:100850000027C00008D4E86940F08050E861E869EA
:10086000012700F0805000905C480168C90513D44E
:100870000168834641F480710160FFF7B3FD824651
:1008800006E000BFFFF7AEFDA0EB0A0064284ED8DB
:10089000DBF80000C005F5D5E06801280AD008B1F2
:1008A000052813D0286A20F001002862286A20F069
:1008B000040002E0286A40F001002862E06841F28A
:1008C000883B98B1FFF78EFD82460BE0286A40F026
:1008D00004002862EEE700BFFFF784FDA0EB0A01E9
:1008E00059455AD8286A8007F6D50CE0FFF77AFDFB
:1008F000824605E0FFF776FDA0EB0A0159454CD88A
:10090000286A8007F6D41FB1E86920F08050E861BA
:10091000E06988B36968C1F38101022944D00228E3
:10092000C6F8608004D0FFF75DFD044638E034E08F
:10093000FFF758FD074604E0FFF754FDC01B0228EF
:100940002BD828688001F7D4206AB0F5803F05D104
:100950006868A16820F4003008436860D4E90801A1
:100960000843696821F4741108436860C6F8609010
:10097000FFF738FD044606E025E000BFFFF732FD33
:10098000001B022809D828688001F7D51BE000BFAA
:10099000FFF728FD001B022802D90320BDE8F88FCD
:1009A00028688001F4D40EE00128F7D06868226A34
:1009B00000F48031914204D1616A00F470108842E1
:1009C00001D00120EAE70020E8E700000010024023
:1009D00000004242800442420C00002000700040AF
:1009E00010B5401EB0F1807F01D3012010BD4FF043
:1009F000E02460610F21601700F085F80020A061FD
:100A000007202061002010BDFEE7000070B586B011
:100A1000002421480094019402940394816941F0D8
:100A200020018161816901F020010491816941F017
:100A300008018161816901F008010491816941F037
:100A4000040181618069154E00F004004FF47F4578
:100A50000490002229463046FFF7BFFC0220CDE972
:100A6000024000950125694601953046FFF7D0FB0D
:100A7000E80200900A48CDE9010569460948FFF7F8
:100A8000C7FB002201212820FFF71CFD2820FFF7CB
:100A90000BFD06B070BD000000100240000C0140CC
:100AA0000000211000080140FEE7704770477047C2
:100AB000FFF79EBC30B58FB028216846FFF73BFB9F
:100AC00014210AA8FFF737FB01210804CDE9001023
:100AD0000024029402250491CDE907504FF4E01060
:100AE00009906846FFF7ECFD0F20CDE90A05680282
:100AF000CDE90C4002210AA80E94FFF715FD0FB0B6
:100B000030BD7047FEE70907090E002804DB00F13D
:100B1000E02080F80014704700F00F0000F1E020A2
:100B200080F8141D704702E008C8121F08C1002A8F
:100B3000FAD170477047002001E001C1121F002A5E
:100B4000FBD17047FFF75CFCFFF7B4FFFFF75EFFD8
:100B50000720094C094A012300F1080103FA01F1B9
:100B6000C94321601146491E0029FCDC401C0828AD
:100B7000F2D10020F0E700000C0C0140FDFF030063
:100B8000000000000000000001020304060708093D
:100B9000B00B00080000002010000000260B000829
:100BA000C00B00081000002000040000360B0008F5
:100BB0000100000010000000000000000024F4000C
:04000005080000ED02
:00000001FF
